:020000040800F2
:10000000708E002061020008A10500089905000813
:100010009D0500081D030008950A00080000000067
:10002000000000000000000000000000A101000826
:10003000A504000800000000FD010008E908000810
:100040007B0200087B0200087B0200087B0200089C
:100050007B0200087B0200087B0200087B0200088C
:100060007B0200087B0200087B0200087B0200087C
:100070007B0200087B0200087B0200087B0200086C
:100080007B0200087B0200087B0200087B0200085C
:100090007B0200087B0200087B0200087B0200084C
:1000A0007B0200087B0200087B0200087B0200083C
:1000B0007B0200087B0200087B0200087B0200082C
:1000C0007B0200087B0200087B0200087B0200081C
:1000D0007B0200087B0200087B0200087B0200080C
:1000E0007B0200087B0200087B0200087B020008FC
:1000F0007B0200087B0200087B0200087B020008EC
:100100007B0200087B0200087B0200087B020008DB
:100110007B0200087B0200087B0200087B020008CB
:100120007B0200087B0200087B0200082103000814
:100130007B0200087B0200087B0200087B020008AB
:100140007B0200087B0200087B0200087B0200089B
:100150007B0200087B0200087B0200087B0200088B
:100160007B0200087B0200087B0200087B0200087B
:100170007B0200087B0200087B0200087B0200086B
:100180007B0200087B020008DFF810D000F0B4F812
:1001900000480047490F0008AFF30080708E002030
:1001A0002C4B19680868B0E8F04F80F30988BFF35A
:1001B0006F8F4FF0000080F311887047000000003F
:1001C00008480068006880F308884FF0000080F35A
:1001D000148862B661B6BFF34F8FBFF36F8F00DF35
:1001E00000BF00BF08ED00E0DFF80C00016841F43B
:1001F00070010160704700BF88ED00E0EFF30980F7
:10020000BFF36F8F134B1A681EF0100F08BF20ED5D
:10021000108A20E9F04F106009B44FF0500080F3CD
:100220001188BFF34F8FBFF36F8F02F08DF94FF03E
:10023000000080F3118809BC19680868B0E8F04F25
:100240001EF0100F08BFB0EC108A80F30988BFF3CE
:100250006F8F704758000020EFF305807047000053
:100260000648804706480047FEE7FEE7FEE7FEE750
:10027000FEE7FEE7FEE7FEE7FEE7FEE71D090008F2
:100280008901000840EA01039B0703D009E008C97F
:10029000121F08C0042AFAD203E011F8013B00F84B
:1002A000013B521EF9D27047D2B201E000F8012B97
:1002B000491EFBD270470022F6E710B513460A46E6
:1002C00004461946FFF7F0FF204610BD30B50B4637
:1002D000014600202022012409E021FA02F59D4276
:1002E00005D303FA02F5491B04FA02F52844151E4A
:1002F000A2F10102F1DC30BD064C074D06E0E068DA
:1003000040F0010394E8070098471034AC42F6D35C
:10031000FFF73EFF98390008B839000800BFFEE734
:1003200010B50B490B4800F041F880B100BF8021A7
:10033000094800F026FA0128F9D00848006810B1F1
:100340000648006880470249024800F009F810BDDD
:10035000008000185864024000300140080000206E
:100360000246094B9A4201D2084801E0064810387B
:1003700001F000531BB1064B0B40C36002E0044B7D
:100380000B40836070470000106402400060024030
:100390007D0F7D0F21B1026842F00102026003E08F
:1003A000026822F0010202607047000070B5024648
:1003B000002000240025124EB24201D2114B01E070
:1003C0000F4B103B104E0E4036B11E2606EAD124CC
:1003D000166806EA040502E0566906F0800501F099
:1003E00000560EB15C6800E01C68084E344004EA18
:1003F000010616B10DB1012000E0002070BD000023
:1004000010640240006002403C0F3C0F7D0F7D0FE6
:1004100010B501F080034BB122B1436943F0800372
:10042000436103E0436923F08003436180290BD0DB
:100430002AB1036801F01E042343036004E003684B
:1004400001F01E04A343036010BD000010B500229C
:100450000268134B1A40CC680B6823434C69234352
:100460008C692343CC6923430C6A23434C6A23439E
:100470008C6A23434C6B23438C6B23431A430260E7
:10048000426922F00702D1E90B3423431A43426147
:100490000B6943604B6883608B68C36010BD0000CC
:1004A0003F801CF07047F0B50A460021002300246D
:1004B00000BF3DE0012505FA01F3156805EA0304D4
:1004C0009C4234D105684F000326BE40B543056009
:1004D00015794E00B5400668354305601579012D44
:1004E00002D01579022D16D185684F000326BE4033
:1004F000B543856055794E00B540866835438560C3
:10050000456801268E40B5434560456896798E4022
:10051000B6B235434560C5684F000326BE40B543BB
:10052000C560D5794E00B540C6683543C560491CE5
:100530001029BFD3F0BDF0B5002300244D07ED0E08
:1005400002FA05F3CE1000F1200555F826504E07AB
:10055000F70E0F26BE40B543CF1000F1200646F837
:100560002750CE1000F1200555F8265045EA030427
:10057000CE1000F1200545F82640F0BD02460020CF
:1005800013690B400BB1012000E0002070470AB155
:10059000018300E04183704700BFFEE700BFFEE734
:1005A0007047000070B5002100230F22C4781CB3EF
:1005B000174C246804F4E064C4F5E064C4F3072134
:1005C000C1F10404E3B20A4144789C40E1B284786A
:1005D000144021430C07210E0E4C05786155047818
:1005E00004F01F050124AC4005786D11AD0005F144
:1005F000E025C5F8004109E0047804F01F05012456
:10060000AC40054D0678761145F8264070BD0000D7
:100610000CED00E000E400E080E100E0024901436D
:10062000024A1160704700000000FA050CED00E07E
:1006300029B1064A12680243044B1A6004E0034AD7
:1006400012688243014B1A60704700003038024044
:1006500029B1064A12680243044B1A6004E0034AB7
:1006600012688243014B1A60704700004438024010
:10067000F0B5002100220024022500260223324F7B
:100680003F6807F00C0121B1042905D0082937D1B2
:1006900005E02E4F076036E02D4F076033E02A4F0C
:1006A0003F1F3F68C7F38056274F3F1F3F6807F043
:1006B0003F036EB1264FB7FBF3F7DFF88CC0ACF108
:1006C000040CDCF800C0CCF3881C07FB0CF40CE035
:1006D0001E4FB7FBF3F7DFF870C0ACF1040CDCF889
:1006E00000C0CCF3881C07FB0CF4174F3F1F3F687A
:1006F000C7F301477F1C7D00B4FBF5F7076002E0FC
:10070000124F076000BF00BF0F4F3F6807F0F001B6
:100710000909104F7A5C0768D74047600A4F3F6865
:1007200007F4E051890A0B4F7A5C4768D74087602D
:10073000054F3F6807F46041490B064F7A5C4768F4
:10074000D740C760F0BD0000083802400024F40024
:1007500000127A004800002021B1028842F04002D5
:10076000028004E002884FF6BF731A40028070478F
:100770001AB183880B43838002E083888B43838094
:1007800070470246002013890B400BB1012000E0A6
:10079000002070478181704710B50022028802F462
:1007A00041520B884C8823438C882343CC882343B5
:1007B0000C8923434C8923438C892343CC892343CD
:1007C0001A430280838B4FF2FF74234083830B8A8A
:1007D000038210BD0CB500200190009034480068E1
:1007E00040F480303249086000BF3148006800F4AE
:1007F000003000900198401C0190009818B90198B1
:10080000B0F5A04FF1D12A48006800F4003010B1D3
:100810000120009001E0002000900098012846D1BE
:1008200023484030006840F0805021494031086042
:100830002048006840F440401E4908601C480830C9
:1008400000681B49083108600846006840F4004011
:1008500008600846006840F4A05008601648091F68
:100860000860081F006840F08070091F086000BF22
:100870000F48006800F000700028F9D040F20570C1
:100880000E4908600A480830006820F00300084953
:10089000083108600846006840F00200086000BFA8
:1008A00003480830006800F00C000828F8D10CBD9F
:1008B000003802400070004008544007003C0240ED
:1008C000042808D14FF0E021096941F004014FF0FC
:1008D000E022116107E04FF0E021096921F00401F5
:1008E0004FF0E0221161704710B500BF502080F337
:1008F0001188BFF34F8FBFF36F8F00BF02F062FA12
:1009000018B14FF080500449086000BF002080F308
:10091000118800BF10BD000004ED00E010B51548BF
:10092000006840F47000134908601348006840F004
:1009300001001149086000200F49083108600E4885
:1009400000680E4908400C4908600D48091D086000
:10095000081F006820F48020091F08600020064955
:100960000C310860FFF736FF4FF000600149803915
:10097000086010BD88ED00E000380240FFFFF6FE81
:100980001030002421B1828942F40052828104E0B7
:1009900082894DF6FF731A4082817047024600201B
:1009A000B1F5007F00D100BF13880B400BB10120CF
:1009B00000E00020704700002DE9FF4705460E4685
:1009C0000024A14600BFA046B08900B100BF2C8A18
:1009D00024F44054F08804432C82AC8941F20C602A
:1009E0008443B08831890843718908430443AC814A
:1009F000AC8A24F44074B0890443AC826846FFF7A3
:100A000037FE2048854202D01F48854202D1DDF8DA
:100A10000C9001E0DDF80890A88900F4004040B196
:100A200009EBC90000EB091031684900B0FBF1F790
:100A300007E009EBC90000EB091031688900B0FB41
:100A4000F1F76420B7FBF0F004012009642101FBF9
:100A50001078A88900F4004040B1322000EBC800B3
:100A6000B0FBF1F000F00700044308E0322000EB97
:100A700008106421B0FBF1F000F00F0004432C815A
:100A8000BDE8FF870010014000140140C1F30802D7
:100A90008280704700BFFEE70FB4054B10B503A975
:100AA000044A029800F018F810BC5DF814FB00002E
:100AB000110D0008D800002002E008C8121F08C16C
:100AC000002AFAD170477047002001E001C1121FCF
:100AD000002AFBD1704700002DE9FF4F89B09B46EB
:100AE0000446002506E025280BD05A460B9990476E
:100AF000641C6D1C20780028F5D10DB02846BDE897
:100B0000F08F0027B8460122474900E0074314F858
:100B1000013F203B02FA03F00842F7D120782E284B
:100B200019D114F8010F47F004072A280ED06FF0EE
:100B30002F022078A0F1300109290CD808EB880198
:100B400002EB410100EB0108641CF2E70A98641C07
:100B500050F8048B0A9020780028CED0642808D062
:100B6000692806D075281ED05A460B9990476D1CEF
:100B700058E00A994FF00A0901C90A91002802DADF
:100B800040422D2102E0390504D52B218DF820109B
:100B9000012103E0F90704D02021F7E78A4608AED7
:100BA0000DE00021FAE70A994FF00A0901C90A91FC
:100BB000F7E74946FFF78AFB303106F8011D0028A8
:100BC000F7D1ADEB060000F12009780701D44FF012
:100BD0000108C84502DDA8EB090000E000208046BE
:100BE000002706E008A85A46C05D0B9990476D1C87
:100BF0007F1C5745F6DB04E030205A460B9990479E
:100C00006D1CB8F10001A8F10108F5DC05E016F84B
:100C1000010B5A460B9990476D1CB9F10001A9F1DF
:100C20000109F4DC641C65E70928010010B54FF4E4
:100C30004070FFF7F3FC01211020FFF709FD0121AF
:100C40008803FFF705FD01210803FFF701FD0121DE
:100C50000846FFF7EDFC01210220FFF7E9FC012126
:100C60000420FFF7E5FC01211020FFF7E1FC012142
:100C70008805FFF7DDFC10BD10B56FF00400FFF72D
:100C80001FFE074800680749B0FBF1F006490860FD
:100C9000084600684FF47A7148430449086010BD63
:100CA0003400002000127A00000000200400002020
:100CB00010B5044603E04FF47A7000F005F8201EEA
:100CC000A4F10104F7D110BD0021104A126842437B
:100CD000521E4FF0E0235A6100229A611A461269AF
:100CE00042F001021A6100BF4FF0E022116901F4E5
:100CF0008032002AF8D04FF0E022126922F001027F
:100D00004FF0E0231A6100229A6170470000002032
:100D100070B504460D46A1B20548FFF7B7FE00BF07
:100D200080210348FFF73AFE0028F9D0204670BD25
:100D30000010014030B58FB004460D463C21684696
:100D4000FFF7B9FA04954FF0C0600090402003907F
:100D500000200B90029408904FF4806006900020D1
:100D600009900B4801900020079005904FF4003047
:100D70000A9069460748FFF769FB012210210548E0
:100D8000FFF746FB01210348FFF704FB0FB030BD1E
:100D90000C3001405864024010B500F005F800F036
:100DA00035F800F063F810BD1CB505220321164884
:100DB000FFF7C1FB052211461348FFF7BCFB0220D9
:100DC0008DF8040000208DF8060008200090002017
:100DD0008DF8070003208DF8050069460A48FFF7E3
:100DE00062FB02208DF8040000208DF80600202010
:100DF000009000208DF8070003208DF8050069465B
:100E00000148FFF750FB1CBD0004024000B585B04F
:100E10001020ADF80C000120ADF808000220ADF85C
:100E200006000020ADF81000ADF804004FF440407B
:100E3000ADF800000020ADF80E004FF48270ADF860
:100E400002004FF40070ADF80A0069460648FFF74B
:100E5000A3FC012202210448FFF78AFC0121024879
:100E6000FFF77AFC05B000BD0030014008B53B201B
:100E70008DF8000001208DF8030005208DF8010099
:100E800000208DF802006846FFF78CFB08BD0000CB
:100E900001490860704700000800002070B5054651
:100EA0000E4600240CE000BF02210A48FFF769FC4F
:100EB0000028F9D0295D0748FFF76CFC601C84B25C
:100EC000B442F0DB00BF80210248FFF75AFC012842
:100ED000F9D070BD003001401CB5044601212068E6
:100EE000FFF7A6FB002000900190208900900120D0
:100EF0008DF8040000208DF8060001208DF8050013
:100F000069466068FFF7CFFA1CBD10B50446E27A67
:100F100021896068FFF73BFB10BD10B50446A27A3B
:100F200021896068FFF733FB10BD10B504462189A5
:100F30006068FFF723FB18B92046FFF7E6FF02E0E1
:100F40002046FFF7EAFF10BD1CB5FFF76FFE01F06A
:100F500075F8FFF791FE00F0BFFE002000F096FE4E
:100F60001A48FFF7B9FF1A48FFF7B6FF1948FFF70D
:100F7000B3FF00204FF47841174B4122CDE9001018
:100F8000014600F047FF0020032103468022CDE9FF
:100F9000001012A1134801F0CFFE002005210346E6
:100FA0008022CDE9001010A1114801F0C5FE01F02A
:100FB00075FA09E00FA0FFF76FFD12A0FFF76CFDB7
:100FC0004FF47A70FFF774FEF4E700004032000837
:100FD0005832000870320008100000207461736BF2
:100FE00031000000811F00087461736B3200000043
:100FF0000920000848656C6C6F20576F726C642183
:101000000D0A0000C4E3BAC30D0A00002DE9F04147
:1010100005460E461C4807681C480068001D01F084
:1010200051F850B91948006890F82C1001208840F8
:1010300017490968814316480160681C38B936B100
:1010400012480168091D134801F07AF81AE07C196A
:101050000E4800684460BC4207D20C480168091D74
:101060000D48006801F052F80CE008480168091DBD
:101070000A48006801F04AF809480068844201D231
:1010800007480460BDE8F0816C0000205800002093
:101090007000002034120020600000205C0000205E
:1010A0008800002010B5044601F056F82448006876
:1010B000401C234908602348006840B92148046067
:1010C0000846006801280DD100F0D6F90AE01E4854
:1010D000006838B91B480068C06AE16A884201D8D4
:1010E0001848046019480068401C18490860084600
:1010F0000068206494F82C10012088401449096885
:10110000084313490860E16A01EB8101114A02EBCF
:101110008100211D01F014F801F048F80A48006828
:1011200068B108480068C06AE16A884207D24FF097
:10113000805009490860BFF34F8FBFF36F8F10BD18
:101140006800002058000020740000208400002067
:10115000700000201C11002004ED00E010B500F02C
:10116000FBFF10480068D0B90F4800F0BFFF0F48E0
:1011700000F0BCFF0C480E4908600C480D4908609F
:1011800000220C210A2001F0D9FA0649086008461D
:10119000006820B108A10348006801F0C7F801F019
:1011A00005F810BDA0000020481200205C120020AD
:1011B000980000209C000020546D72510000000037
:1011C00010B516E000F0C8FF0C48C068C468201DC8
:1011D00000F078FF0A480068401E09490860094885
:1011E0000068401E0749086000F0E0FF204600F05C
:1011F0005FF8044800680028E4D110BD20120020E8
:10120000680000206400002070B504460D46206C84
:1012100070B1216CE0680144E160D4E902108842B9
:1012200001D32168E1602846226CE168FFF72AF8C3
:1012300070BD2DE9F04104460F4615464FF00008F9
:10124000A66B206C48B9206800282CD1A06801F05A
:101250005DFE80460020A06025E07DB93946226C05
:101260006068FFF70FF8216C606808446060D4E99B
:101270000101884217D32068606014E03946226C6F
:10128000E068FEF7FFFF216CE068411AE160216829
:10129000E068884203D2216CA068411AE160022D07
:1012A00001D106B1761E701CA0634046BDE8F081F6
:1012B00010B50446206B00F097FF204600F094FF25
:1012C00010BD00000146084A126812680AB90122DE
:1012D00000E000220A600A6822B9034A1268D26854
:1012E000106800E0002070479800002030B54FF4EF
:1012F000F043174800F007042CB1C01D20F0070090
:10130000134C041B1B1B0246124C22600024114D7F
:101310006C60D018083820F007000F4C20600024C3
:101320000D4D2D686C600C4D2D682C601146441AD3
:101330004C60094C24680C60084D4C682C60084DCA
:101340004C682C604FF00044064D2C6030BD00000E
:1013500070120020AC000020B4000020BC0000206F
:10136000B8000020C800002000BFFFF729FF064892
:1013700000680128F9D94FF0805004490860BFF394
:101380004F8FBFF36F8FF0E71C11002004ED00E0DA
:101390002DE9F04106460D4617469846069C0DB9C4
:1013A000246000E02760E66325640121204601F007
:1013B00017FA84F84C80BDE8F0812DE9F05F824691
:1013C0000E4690469B460A9F0C9C4FEA8801A52238
:1013D000206BFEF769FFA8F10100216B01EB80098A
:1013E00029F0070909F0070008B9012000E00020F2
:1013F00050B900BF502080F31188BFF34F8FBFF367
:101400006F8F00BF00BFFEE786B1002507E0715D6A
:1014100004F134004155705D00B902E06D1C0A2DE5
:10142000F5D300BF00213D20015502E0002084F8E3
:1014300034000A2F00D30927E762A7640020E06484
:10144000201D00F060FE04F1180000F05CFE246135
:10145000C7F10A00A06164620020206584F854008E
:101460005A465146484600F069FB20600B9808B187
:101470000B980460BDE8F09F10B5002407E004EB72
:1014800084010F4A02EB810000F030FE641C0A2C3C
:10149000F5D30C4800F02AFE0B4800F027FE0B485D
:1014A00000F024FE0A4800F021FE0A4800F01EFE6B
:1014B00004480949086004480849086010BD000054
:1014C0001C110020E4110020F81100200C12002053
:1014D00020120020341200205C0000206000002058
:1014E00010B50146164800E0006803688B42FBD344
:1014F0000246436813448B4204D143684C6823443A
:10150000436001460A464B6813440468A34211D164
:101510000C4C03682468A34208D04B6804686468D4
:1015200023444B6003681B680B6005E0054B1B6898
:101530000B6001E003680B60884200D0016010BDC1
:10154000AC000020B40000202DE9F04104460D4617
:1015500016461F464FF0000865602461B5420CD85E
:10156000F01BA169884202D34FF0010811E0211D50
:101570000948006800F0CAFD0BE0BE4204D2BD423B
:1015800002D34FF0010804E0211D0448006800F078
:10159000BDFD4046BDE8F0819C0000209800002081
:1015A00070B5054600F0D8FDA86B08B9012400E02D
:1015B000002400F0FBFD204670BD70B5054600F02C
:1015C000CBFDA86BE96B884201D1012400E0002427
:1015D00000F0ECFD204670BDF8B505460F461A48F0
:1015E0000068C068C468201D00F06CFD94F82800F5
:1015F00000F00400E8B1A06941192B463A462046A4
:10160000FFF7A2FFD8B1002003462A46014600900A
:10161000204601F0D3FD064656B900BF502080F3A6
:101620001188BFF34F8FBFF36F8F00BF00BFFEE77E
:1016300005E094F8280020F0010084F828002046F6
:10164000216A8847F8BD00009800002070B586B078
:101650008BE003980028FBDB059C606908B901203A
:1016600000E0002010B9201D00F02CFD02A800F0C1
:10167000DBF8054603980A2875D2DFE800F0090573
:101680000739416306083A4200BF00BF00BF00BFF0
:1016900094F8280040F0010084F828000498A2691A
:1016A000811803462A462046FFF74EFFF8B1204630
:1016B000216A884794F8280000F00400B8B100209F
:1016C00000900498A169421800231946204601F0B1
:1016D00075FD064656B900BF502080F31188BFF350
:1016E0004F8FBFF36F8F00BF00BFFEE700BF3BE02F
:1016F00000BF94F8280020F0010084F8280033E0AF
:1017000000BF94F8280040F0010084F828000498F5
:10171000A061A06908B1012000E0002050B900BF1D
:10172000502080F31188BFF34F8FBFF36F8F00BF3E
:1017300000BFFEE7A06941192B462A462046FFF765
:1017400003FF11E094F8280000F0020018B92046C9
:1017500000F04AFD05E094F8280020F0010084F82C
:10176000280001E0FFE700BF00BF002203A90448F2
:10177000006801F0E5F900287FF46BAF06B070BD9A
:10178000A0000020F8B505460C4600F0D5FE6846DE
:1017900000F04AF80646009820BB44B9B54206D886
:1017A00001F05EFC31462846FFF716FF1CE03CB115
:1017B0000E480068006808B9012000E000200446D7
:1017C000A91B22460A48006800F0C6FD01F048FC4B
:1017D00050B94FF0805007490860BFF34F8FBFF3F7
:1017E0006F8F01E001F03CFCF8BD00009C00002080
:1017F000A000002004ED00E009480068006808B976
:10180000012000E0002020B14FF0FF3005490860C2
:1018100005E003480068C068006802490860704736
:101820005C0000208800002070B5044601F0C4FA76
:10183000054607480068854204D200F00BF80120F5
:10184000206001E00020206001480560284670BD4E
:10185000A80000202DE9F84334E025480068C0685E
:10186000056823480068C068C468201D00F02AFC91
:101870002046216A884794F8280000F0040008B345
:10188000A0694619AE4207D966602461211D184837
:10189000006800F03BFC15E0002003462A460146A4
:1018A0000090204601F08AFC074657B900BF50203F
:1018B00080F31188BFF34F8FBFF36F8F00BF00BF5E
:1018C000FEE700BF0A480068006808B9012000E090
:1018D00000200028C1D00648D0F8008005480068E4
:1018E000034908600348C0F80080BDE8F8830000A1
:1018F000980000209C0000200E480068401C08B999
:10190000012000E0002050B900BF502080F3118872
:10191000BFF34F8FBFF36F8F00BF00BFFEE700BF65
:10192000502080F31188BFF34F8FBFF36F8F00BF3C
:1019300000BFFEE7CC00002008B500BF6846FFF7F7
:10194000C1FC044620460099FFF71CFFFFF77EFE0E
:10195000F4E770B5044600F0FFFB94F9455010E041
:10196000606A08B9012000E0002038B904F12400C1
:1019700001F02AFB18B100F04FFD00E003E0681E03
:1019800045B2002DECDC00BFFF2084F8450000F0DC
:101990000DFC00F0E1FB94F9445010E0206908B917
:1019A000012000E0002048B904F1100001F00CFB18
:1019B00008B100F031FD681E45B200E001E0002DE5
:1019C000ECDC00BFFF2084F8440000F0EFFB70BDAA
:1019D0002DE9F04104464FF0000800F0ADFD5148FC
:1019E000006808B9FFF782FC4F48006820400028D3
:1019F0007ED13CB304F10800A04223D9083404F09E
:101A0000070000B304F00700C0F108002044A04222
:101A100016D904F00700C0F10800044404F00700E0
:101A200008B9012000E0002068B900BF502080F311
:101A30001188BFF34F8FBFF36F8F00BF00BFFEE76A
:101A4000002400E00024002C54D038480068844270
:101A500050D8374E3046056801E02E462D6868683C
:101A6000A04202D228680028F7D12E48006885429B
:101A700040D0306800F10808286830606868001BB2
:101A8000102819D92F1907F0070008B9012000E024
:101A9000002050B900BF502080F31188BFF34F8F52
:101AA000BFF36F8F00BF00BFFEE76868001B786060
:101AB0006C603846FFF714FD1C4968680968081A0D
:101AC0001A490860084600681A490968884203D222
:101AD0001648006817490860134968680968084390
:101AE00068600020286014480068401C124900E02B
:101AF00000E0086001F0B4FA08F0070008B901201E
:101B000000E0002050B900BF502080F31188BFF3DF
:101B10004F8FBFF36F8F00BF00BFFEE74046BDE8A9
:101B2000F0810000B4000020C8000020B8000020B0
:101B3000AC000020BC000020C0000020001F4FF0BF
:101B400080730360001F21F001030360001F054B39
:101B5000036014380260001F6FF002030360203836
:101B600070470000F918000801200149087070470B
:101B70000C00002070B5044619E014F8016B14F84D
:101B8000015BFF2E08D1FF2D00D111E005EB85018F
:101B90004800FFF78DF809E0304600F09BF9002D72
:101BA00003DD2946204600F0A3F92C4400BFE4E7FA
:101BB00000BF70BD2DE9F84F04460D4616461F467E
:101BC000DDF828A0802C01DA802D01DBBDE8F88F3C
:101BD000A019401E802802DBC4F1800086B2E819FB
:101BE000401E802802DBC5F1800087B200F0D4F8E7
:101BF00005EB070CACF1010C0CF0FF0304EB060C39
:101C0000ACF1010C0CF0FF02E9B2E0B200F0CEF84A
:101C10004FEA2A208DF800000AF0FF008DF801003D
:101C20004FF0000828E006FB07F0A0EB08001FFAC1
:101C300080F9B9F5006F01DD4FF40069B8F1000FCC
:101C40000FD11148002109E09DF8002000F8012B78
:101C50009DF8012000F8012B4A1C91B24945F3DBA5
:101C600000BF4FF6FF7000EA4901074800F040F955
:101C700008F500601FFA80F806FB07F04045D2DC4B
:101C800000F0BEF800BFA1E7DC00002038B5044634
:101C900080231A46002108460094FFF78BFF38BDC9
:101CA00070B502460B461188C81DC11700EB517173
:101CB000CD1000210BE050886843401C566801FBA2
:101CC00000642078984201D1601C70BD491C906866
:101CD0008842F0D80020F8E710B5FFF75DF80A4811
:101CE000FFF7D6F800F016F800F042F800F054F8CC
:101CF0000648FFF73FFF00F083F8012291020448F5
:101D0000FEF745FC10BD0000691B00088832000882
:101D1000000402401CB501208DF8040000208DF85D
:101D2000060002208DF805000120009069460E484B
:101D3000FEF7B9FB0220009069460B48FEF7B3FBA3
:101D40001020009069460948FEF7ADFB4FF4806013
:101D5000009069460448FEF7A6FB00224FF480611C
:101D60000148FEF714FC1CBD0004024000000240C4
:101D700010B5002201210748FEF709FC0220FEF7FA
:101D800097FF012211460348FEF701FC7820FEF779
:101D90008FFF10BD0004024010B500221021024840
:101DA000FEF7F5FB10BD000000000240F8B5074645
:101DB0000C4615461E462A2000F08CF800200090A4
:101DC000B81CC0B28DF80100A81CC0B28DF8030089
:101DD0000421684600F08CF82B2000F07BF8E01C12
:101DE000C0B28DF80100F01CC0B28DF803000421D0
:101DF000684600F07DF82C2000F06CF8F8BD00007B
:101E000010B5012210210248FEF7C1FB10BD0000F1
:101E1000000002402DE9F84F06460F4690461D4649
:101E2000DDE90A9AFFF7B8FF95F802C0BC44ACF1AF
:101E3000010C0CF0FF0395F800C0B444ACF1010CA8
:101E40000CF0FF02F9B2F0B2FFF7B0FF2988C81D0D
:101E5000C11700EB5171C1F3C70B1D4C4146284619
:101E6000FFF71EFF0090002125E0009801FB0B0208
:101E700000201BE002EBE00C9CF8003000F0070CA7
:101E800003FA0CFC0CF0800CBCF1000F06D04FEAFA
:101E9000292C04F801CB04F8019B05E04FEA2A2C19
:101EA00004F801CB04F801AB431CD8B22B88834261
:101EB000E0DC481CC1B268888842D6DC0448201A9D
:101EC00081B2034800F014F8FFF79AFFBDE8F88FDD
:101ED000DC00002001B5002202210448FEF757FB78
:101EE00001216846FEF7DAFF08BD00000004024049
:101EF00070B504460D46012202210848FEF747FB53
:101F000000200749087029462046FEF713FF00BF4E
:101F1000034800780028FBD070BD00000004024098
:101F20000C0000202DE9FC4706460F4614461D46CE
:101F3000DDE90A891EE02888304480280DDB002670
:101F40006888384487B268883844802800DB14E009
:101F50002078202801D1641C0CE0CDE9008922788A
:101F60002B4639463046FFF755FF2888304486B265
:101F7000641C00BF20780028DDD100BFBDE8FC87CD
:101F80001CB5102424E04FF478404FF4FC61CDE9F7
:101F90000010A1B20F4B10A20020FFF7C3FF4FF4B7
:101FA00078404FF4FC61CDE90010A1B2094B0DA2BD
:101FB0000020FFF7B7FF0F48FEF7B7FF601C04468D
:101FC00001460DA0FEF768FD4FF4FA7000F0EAF943
:101FD000D9E7000010000020202020202020202011
:101FE0002020200048656C6C6F20576F726C642154
:101FF00000000000403200087461736B31206E7580
:102000006D3A25640D0A000000240CE00648FEF736
:102010008CFF601C0446014604A0FEF73DFD4FF412
:102020007A7000F0BFF9F1E7583200087461736B01
:1020300032206E756D3A25640D0A000010B500F06F
:1020400003F800F023F810BD1CB5072209210E4843
:10205000FEF771FA07220A210B48FEF76CFA0220FC
:102060008DF8040000208DF8060001208DF807008F
:102070004FF4C060009003208DF8050069460248C7
:10208000FEF711FA1CBD0000000002401FB54FF41E
:10209000E13000900020ADF80C000C20ADF80A00F3
:1020A0000020ADF80800ADF80600ADF80400694660
:1020B0000348FEF781FC01210148FEF763FC1FBDC8
:1020C0000010014001460A69D1E901309860D1E968
:1020D000010358605068884201D188685060002030
:1020E00008611068401E10601068704700F1080118
:1020F00041604FF0FF31816000F10801C160016172
:1021000000210160704700210161704710B502464F
:102110000B685C1C0CB9106907E002F1080000E0D4
:102120004068446824689C42FAD944684C604C6812
:10213000A160886041600A611468641C146010BD6D
:1021400042684A6093688B60936859609160086147
:1021500003685B1C0360704700BF502080F3118848
:10216000BFF34F8FBFF36F8F00BF0E480068401C56
:102170000C49086008460068012812D10A48006826
:10218000C0B208B9012000E0002050B900BF5020C3
:1021900080F31188BFF34F8FBFF36F8F00BF00BF75
:1021A000FEE77047CC00002004ED00E00D48006819
:1021B00050B900BF502080F31188BFF34F8FBFF399
:1021C0006F8F00BF00BFFEE706480068401E05494C
:1021D00008600846006820B9002080F3118800BF1D
:1021E00000BF7047CC00002070B506463546002E73
:1021F00044D0083D2C46224960680968084008B16F
:10220000012000E0002050B900BF502080F3118869
:10221000BFF34F8FBFF36F8F00BF00BFFEE7206893
:1022200008B9012000E0002050B900BF502080F321
:102230001188BFF34F8FBFF36F8F00BF00BFFEE762
:102240000F49606809680840C0B12068B0B90C49FE
:10225000606809688843606000F06EF90949606849
:1022600009680844074908602046FFF739F906481D
:102270000068401C0449086000F0F2FE70BD0000D8
:10228000C8000020B8000020C400002000204FF04B
:10229000E02108618861064800684FF47A71B0FB5C
:1022A000F1F0401E4FF0E0214861072008617047BF
:1022B0003400002070B5FDF7CFFF0446102C16D374
:1022C00004F1E02090F8F05315480078854201DBD6
:1022D000012000E0002050B900BF502080F3118899
:1022E000BFF34F8FBFF36F8F00BF00BFFEE70D48F6
:1022F000006800F4E0600C490968884201D80120B8
:1023000000E0002050B900BF502080F31188BFF3D7
:102310004F8FBFF36F8F00BF00BFFEE770BD00009F
:10232000D00000200CED00E0D40000200246002088
:102330000BE0084B53F8303033B9064B43F83010FC
:1023400003EBC0035A6002E0401C0828F1D300BF31
:1023500070470000DC1000202DE9F04105460E46D4
:1023600017462C46FFF7F8FE94F94400401C10B9BC
:10237000002084F8440094F94500401C10B9002066
:1023800084F84500FFF712FFA06B28B93A463146A2
:1023900004F1240000F062F82046FFF7DAFABDE805
:1023A000F081000070B504460025D4B112480068E1
:1023B00008B9012000E0002050B900BF502080F390
:1023C0001188BFF34F8FBFF36F8F00BF00BFFEE7D1
:1023D00000F0B2F800212046FEF718FE00F040FEA3
:1023E00005463DB94FF0805004490860BFF34F8F58
:1023F000BFF36F8F70BD00009400002004ED00E07B
:102400000349096801600349096841607047000099
:10241000800000206C000020012001490860704706
:102420007C00002070B504460D4654B900BF502012
:1024300080F31188BFF34F8FBFF36F8F00BF00BFD2
:10244000FEE70548016818312046FFF75FFE0121CD
:102450002846FEF7DBFD70BD5800002070B505462C
:102460000E46144655B900BF502080F31188BFF3C3
:102470004F8FBFF36F8F00BF00BFFEE706480168B4
:1024800018312846FFF75CFE0CB14FF0FF362146AD
:102490003046FEF7BBFD70BD580000201CB51E483D
:1024A00000210B468222CDE900101CA11D4800F03E
:1024B00043FC0446012C02D100F054FE0446012CDA
:1024C00015D100BF502080F31188BFF34F8FBFF3A9
:1024D0006F8F00BF4FF0FF30134908600120134990
:1024E000086000201249086000F074F810E0601CD9
:1024F00008B1012000E0002050B900BF502080F357
:102500001188BFF34F8FBFF36F8F00BF00BFFEE78F
:10251000084800681CBD00008C00002049444C4560
:1025200000000000691300088800002074000020EB
:102530006C0000209000002002480068401C014907
:1025400008607047940000201D48006818B1012001
:102550001C49086032E000201A4908601A480068E7
:10256000B0FA80F0C0F11F0101EB8100174A52F868
:10257000200008B1012000E0002050B900BF502029
:1025800080F31188BFF34F8FBFF36F8F00BF00BF81
:10259000FEE701EB81020D4B03EB820042685268BB
:1025A000426000F108024368934202D142685268D7
:1025B00042604268D268064B1A6000BF7047000054
:1025C000940000207C000020700000201C110020DE
:1025D000580000201CB5524800685249884201D07A
:1025E000012000E0002050B900BF502080F3118886
:1025F000BFF34F8FBFF36F8F00BF00BFFEE74848A8
:1026000000684849491E884201D0012000E00020AE
:1026100050B900BF502080F31188BFF34F8FBFF334
:102620006F8F00BF00BFFEE73F490846007801906A
:10263000FF200A4610700846007800909DF80000C0
:1026400000F0F0009DF80020904201D1012000E050
:10265000002050B900BF502080F31188BFF34F8F86
:10266000BFF36F8F00BF00BFFEE79DF8000000F0D2
:1026700050002E4A107007202D4A106009E02C48A7
:102680000068401E2A4A10609DF800004006000EB7
:1026900000909DF8000000F080008028EFD02448D2
:1026A0000068C0F10700042801D1012000E00020EB
:1026B00050B900BF502080F31188BFF34F8FBFF394
:1026C0006F8F00BF00BFFEE7194800680002184A7C
:1026D00010601046008800F4E0601060124A019813
:1026E00010700F482030006840F470000C49203111
:1026F00008600846006840F070400860FFF7C6FDBB
:1027000000200C490860FDF76FFD0B48006840F0A1
:10271000404009490860FDF753FD00201CBD000042
:1027200000ED00E071C20F4100E400E0D0000020A5
:10273000D4000020CC00002034EF00E02DE9F84365
:1027400006460F4690460EB1012000E0002050B929
:1027500000BF502080F31188BFF34F8FBFF36F8FFE
:1027600000BF00BFFEE706FB07F51FB1B5FBF7F0A2
:10277000B04201D1012000E0002050B900BF50203C
:1027800080F31188BFF34F8FBFF36F8F00BF00BF7F
:10279000FEE705F15000A84201D9012000E0002029
:1027A00050B900BF502080F31188BFF34F8FBFF3A3
:1027B0006F8F00BF00BFFEE705F15000FFF708F97B
:1027C00004464CB1A14609F1500943464A463946F0
:1027D00030460094FEF7DCFD2046BDE8F88300009B
:1027E00070B505460E462C4654B900BF502080F304
:1027F0001188BFF34F8FBFF36F8F00BF00BFFEE79D
:10280000FFF7AAFCD4E90F12206801FB0200A060C8
:102810000020A06320686060E06B401E226C21688D
:1028200000FB0211E160FF2084F8440084F84500B9
:102830009EB9206908B9012000E00020A8B904F180
:10284000100000F0C1FB80B14FF0805009490860D2
:10285000BFF34F8FBFF36F8F07E004F11000FFF756
:1028600045FC04F12400FFF741FCFFF79FFC012029
:1028700070BD000004ED00E02DE9FF4383B0064683
:1028800088461D464FF00009344654B900BF502019
:1028900080F31188BFF34F8FBFF36F8F00BF00BF6E
:1028A000FEE7B8F1000F01D1206C08B9012000E06B
:1028B000002050B900BF502080F31188BFF34F8F24
:1028C000BFF36F8F00BF00BFFEE7022D02D1E06BA8
:1028D000012801D1012000E0002050B900BF5020A4
:1028E00080F31188BFF34F8FBFF36F8F00BF00BF1E
:1028F000FEE700F051FA08B9059808B9012000E098
:10290000002050B900BF502080F31188BFF34F8FD3
:10291000BFF36F8F00BF00BFFEE700BFFFF71CFCD7
:10292000A06BE16B884201D3022D28D12A46414693
:102930002046FEF77EFC0746606A08B9012000E0E9
:10294000002068B904F1240000F03EFB88B14FF08C
:10295000805032490860BFF34F8FBFF36F8F08E09C
:102960003FB14FF080502D490860BFF34F8FBFF348
:102970006F8FFFF71BFC012007B0BDE8F0830598BF
:1029800018B9FFF713FC0020F6E7B9F1000F04D1E6
:1029900001A8FFF735FD4FF00109FFF707FCFFF72E
:1029A000CBFDFFF7D9FB94F94400401C10B900207F
:1029B00084F8440094F94500401C10B9002084F8C4
:1029C0004500FFF7F3FB05A901A800F06DF9F0B988
:1029D0002046FEF7F2FDA0B104F110000599FFF7C3
:1029E00021FD2046FEF7B5FF00F03AFB002895D107
:1029F0004FF0805009490860BFF34F8FBFF36F8FCE
:102A00008CE72046FEF7A5FF00F02AFB86E720466C
:102A1000FEF79FFF00F024FB0020ADE704ED00E08F
:102A20002DE9F84F07468B4690461E463C4654B962
:102A300000BF502080F31188BFF34F8FBFF36F8F1B
:102A400000BF00BFFEE7BBF1000F01D1206C08B949
:102A5000012000E0002050B900BF502080F3118811
:102A6000BFF34F8FBFF36F8F00BF00BFFEE7022E93
:102A700002D1E06B012801D1012000E0002050B913
:102A800000BF502080F31188BFF34F8FBFF36F8FCB
:102A900000BF00BFFEE7FFF70DFC00BF5021EFF3C2
:102AA000118081F31188BFF34F8FBFF36F8F00BF89
:102AB0000546A06BE16B884201D3022E37D194F911
:102AC00045A0A06B0090324659462046FEF7B1FB68
:102AD0000AF1010088B9606A08B9012000E000200D
:102AE00050B904F1240000F06FFA28B1B8F1000FDA
:102AF00002D00120C8F8000016E0BAF17F0F01D023
:102B0000012000E0002050B900BF502080F3118860
:102B1000BFF34F8FBFF36F8F00BF00BFFEE70AF117
:102B2000010040B284F845004FF0010901E04FF088
:102B3000000900BF85F3118800BF4846BDE8F88F43
:102B40002DE9F74183B005460E464FF000082C46AC
:102B500054B900BF502080F31188BFF34F8FBFF3EB
:102B60006F8F00BF00BFFEE70EB9206C08B90120CF
:102B700000E0002050B900BF502080F31188BFF35F
:102B80004F8FBFF36F8F00BF00BFFEE700F004F967
:102B900008B9059808B9012000E0002050B900BF2D
:102BA000502080F31188BFF34F8FBFF36F8F00BFAA
:102BB00000BFFEE700BFFFF7CFFAA76BF7B13146C2
:102BC0002046FEF721FB781EA063206908B901208A
:102BD00000E0002060B904F1100000F0F5F938B110
:102BE0004FF080502F490860BFF34F8FBFF36F8FB6
:102BF000FFF7DCFA012006B0BDE8F081059818B9AE
:102C0000FFF7D4FA0020F6E7B8F1000F04D101A8CD
:102C1000FFF7F6FB4FF00108FFF7C8FAFFF78CFC4F
:102C2000FFF79AFA94F94400401C10B9002084F888
:102C3000440094F94500401C10B9002084F8450078
:102C4000FFF7B4FA05A901A800F02EF8F0B9204664
:102C5000FEF7A6FCA0B104F124000599FFF7E2FB02
:102C60002046FEF776FE00F0FBF90028A3D14FF0D6
:102C700080500C490860BFF34F8FBFF36F8F9AE706
:102C80002046FEF766FE00F0EBF994E72046FEF7DB
:102C900060FE00F0E5F92046FEF782FC00288AD0AD
:102CA0000020A8E704ED00E070B505460C4655B9D4
:102CB00000BF502080F31188BFF34F8FBFF36F8F99
:102CC00000BF00BFFEE754B900BF502080F3118859
:102CD000BFF34F8FBFF36F8F00BF00BFFEE7FFF75B
:102CE0003BFA134802686868131A2068401C08B948
:102CF000002619E00F4928680968884206D06868EC
:102D0000904203D80126002020600DE02068984200
:102D100007D92068C01A20602846FFF771FB0026FB
:102D200002E0002020600126FFF740FA304670BD27
:102D30006C000020800000202DE9FF4F85B0804608
:102D400089461746DDE912ABB800FEF741FE06469C
:102D500056B15820FEF73CFE04460CB1266304E051
:102D60003046FFF741FA00E000247CB10020CDE9B5
:102D700000ABCDE902403A4649464046089BFEF783
:102D80001CFB2046FEF78EF9012501E04FF0FF35D0
:102D9000284609B0BDE8F08F0549096809B9012046
:102DA00005E00449096809B9022000E000207047E5
:102DB000740000209400002001490868704700005A
:102DC0006C0000202DE9F0414FF0000844480068F5
:102DD00000287CD143480068451C4248056015BB6B
:102DE00041480068006808B9012000E0002050B99F
:102DF00000BF502080F31188BFF34F8FBFF36F8F58
:102E000000BF00BFFEE73848076838480068364909
:102E100008603648076036480068401C344908603E
:102E2000FEF7EAFC00BF3348006885423CD300BF90
:102E30002D480068006808B9012000E0002020B19A
:102E40004FF0FF302B4908602DE027480068C0682C
:102E5000C4686668B54202D22648066023E0201D99
:102E6000FFF730F9A06A18B104F11800FFF72AF94A
:102E700094F82C10012088401F49096808431E4916
:102E80000860E16A01EB81011C4A02EB8100211D0F
:102E9000FFF756F91A49E06A0968C96A8842C7D338
:102EA0004FF00108C4E700BF15480068C06A00EB96
:102EB0008000124951F82000012801D94FF0010883
:102EC0001048006808B14FF0010805E0FFE70E4820
:102ED0000068401C0C4908604046BDE8F0810000D5
:102EE000940000206C0000205C00002060000020A6
:102EF0008000002088000020700000201C110020AD
:102F0000580000207C0000207800002070B50546A5
:102F10002C460026002D4ED028480068844201D15E
:102F2000012000E0002050B900BF502080F311883C
:102F3000BFF34F8FBFF36F8F00BF00BFFEE7E06CA2
:102F400050B900BF502080F31188BFF34F8FBFF3FB
:102F50006F8F00BF00BFFEE7E06C401EE064A16C15
:102F6000E06A884227D0E06C28BB201DFFF7AAF852
:102F700040B994F82C100120884011490968814318
:102F80000F480160A06CE062E06AC0F10A00A06135
:102F900094F82C1001208840094909680843084921
:102FA0000860E16A01EB8101064A02EB8100211D04
:102FB000FFF7C6F80126304670BD0000580000201B
:102FC000700000201C11002070B50646F068C4682F
:102FD00054B900BF502080F31188BFF34F8FBFF367
:102FE0006F8F00BF00BFFEE704F11800FFF76AF81B
:102FF00015480068A8B9201DFFF764F894F82C1054
:103000000120884011490968084310490860E16AB5
:1030100001EB81010E4A02EB8100211DFFF790F8C0
:1030200004E004F118010B48FFF78AF80A49E06A46
:103030000968C96A884204D9012501200749086046
:1030400000E00025284670BD94000020700000209C
:103050001C1100200C120020580000207C000020D1
:1030600070B5002400263648006850B900BF5020D3
:1030700080F31188BFF34F8FBFF36F8F00BF00BF86
:10308000FEE7FFF769F82E480068401E2C490860EB
:103090000846006800284FD12A48006800284BD015
:1030A00024E02948C068C46804F11800FFF70AF852
:1030B000201DFFF707F894F82C10012088402349C1
:1030C0000968084321490860E16A01EB8101204A4F
:1030D00002EB8100211DFFF733F81E49E06A096801
:1030E000C96A884202D301201B490860164800685B
:1030F00008B9012000E000200028D2D00CB1FEF772
:103100007BFB1648056865B100BFFFF75BFE10B199
:103110000120114908606D1E002DF6D100200F49D5
:1031200008600D48006838B1012630070C49086076
:10313000BFF34F8FBFF36F8FFFF738F8304670BD86
:1031400094000020680000200C1200207000002075
:103150001C110020580000207C0000207800002076
:1031600004ED00E01CB50024FDF7F8FF0E480068F0
:1031700058B10E48022100234FF48272CDE90010AD
:103180000BA10D48FFF7D8FD044654B900BF5020ED
:1031900080F31188BFF34F8FBFF36F8F00BF00BF65
:1031A000FEE720461CBD0000A0000020A400002077
:1031B000546D722053766300391900082DE9FE43DF
:1031C00004460D4616461F46DDF828804FF00009DC
:1031D00054B900BF502080F31188BFF34F8FBFF365
:1031E0006F8F00BF00BFFEE71448006810B3009562
:1031F00001960294062D15DAFFF7CEFD022808D1BC
:103200000023424669460D480068FFF735FB8146BA
:1032100010E000231A46694608480068FFF72CFBB7
:10322000814607E000233A46694604480068FFF7F4
:10323000F7FB81464846BDE8FE830000A000002061
:103240001000000000100240200000016C65643096
:10325000000000000000000010000000001002400C
:10326000400000016C6564310000000000000000B7
:103270000400000000080240002000016C65643278
:1032800000000000000000001100FF0CB103012C41
:103290002DB203012C2DB306012C2D012C2DB401D0
:1032A00007C003A20284C101C5C2020A00C3028A88
:1032B0002AC4028AEEC5010E3601C8E0100F1A0FAB
:1032C000182F2820221F1B233700070210E1100FA0
:1032D0001B0F17332C292E3030393F000703102ADB
:1032E000040000007F2B040000009FF601003A015B
:1032F000052900FFFF200000000000000000000082
:10330000000000000000210000001010101010103C
:1033100010000010100000220012242448000000B9
:103320000000000000000000230000001212127EC6
:103330002424247E2424240000240000083C4A4A3B
:1033400048380C0A0A4A4A3C08082500000044A4F0
:10335000A8A8B0541A2A2A4A4400002600000030C7
:10336000484848506EA49498897600002700602051
:1033700020400000000000000000000000280002C3
:10338000040808101010101010080804020029008A
:103390004020101008080808080810102040002AD3
:1033A000000000001010D63838D6101000000000C1
:1033B0002B00000000000808087F08080800000033
:1033C000002C000000000000000000000000602051
:1033D00020402D00000000000000007E00000000E2
:1033E0000000002E000000000000000000000000AF
:1033F000606000002F000002040404080810101090
:103400002020404000300000001824424242424246
:10341000424224180000310000000838080808085B
:10342000080808083E0000320000003C4242420208
:1034300004081020427E0000330000003C4242029B
:103440000418040242423C000034000000040C0C4A
:10345000142424447F04041F0000350000007E4033
:103460004040784402024244380000360000001810
:103470002440405C62424242221C000037000000AF
:103480007E420404080810101010100000380000DC
:10349000003C4242422418244242423C000039008F
:1034A00000003844424242463A0202241800003AE0
:1034B00000000000000018180000000018180000AC
:1034C0003B00000000000000100000000000101091
:1034D000103C0000000204081020402010080402E4
:1034E00000003D0000000000007E00007E000000A3
:1034F0000000003E000000402010080402040810F4
:10350000204000003F0000003C42426204080808DE
:1035100000181800004000000038445AAAAAAAAABD
:10352000AA5C423C0000410000001010182828242A
:103530003C444242E7000042000000F84444447822
:103540004442424244F80000430000003E424280B0
:1035500080808080424438000044000000F84442EB
:1035600042424242424244F8000045000000FC4210
:103570004848784848404242FC000046000000FCB1
:10358000424848784848404040E00000470000007A
:103590003C44448080808E844444380000480000CD
:1035A00000E7424242427E42424242E70000490076
:1035B00000007C1010101010101010107C00004A39
:1035C0000000003E0808080808080808080888F0F5
:1035D0004B000000EE444850705048484444EE0010
:1035E000004C000000E0404040404040404042FE6F
:1035F00000004D000000EE6C6C6C6C6C5454545424
:10360000D600004E000000C7626252524A4A4A4643
:1036100046E200004F0000003844828282828282AB
:10362000824438000050000000FC424242427C408C
:10363000404040E000005100000038448282828215
:103640008282B24C38060052000000FC4242427CAA
:103650004848444442E30000530000003E424240D8
:103660002018040242427C000054000000FE921028
:103670001010101010101038000055000000E74224
:1036800042424242424242423C000056000000E7B1
:10369000424244242428281810100000570000003B
:1036A000D654545454546C2828282800005800003C
:1036B00000E7422424181818242442E70000590087
:1036C0000000EE4444282810101010103800005A52
:1036D0000000007E840408081020204242FC000004
:1036E0005B001E1010101010101010101010101E83
:1036F000005C000040202020101010080804040482
:1037000002025D0078080808080808080808080888
:103710000878005E0018240000000000000000008F
:10372000000000005F00000000000000000000003A
:1037300000000000FF6000601000000000000000BA
:10374000000000000000610000000000000038449C
:103750000C34444C3600006200000000C040405869
:103760006442424264580000630000000000000010
:103770001C22404040221C000064000000000602A1
:10378000023E42424242463B00006500000000000B
:1037900000003C42427E40423C00006600000000C7
:1037A0000C12107C10101010107C0000670000003C
:1037B000000000003E444438403C42423C68000067
:1037C0000000C040405C6242424242E700006900A3
:1037D0000000303000007010101010107C00006AE3
:1037E0000000000C0C00001C0404040404044478D1
:1037F0006B00000000C040404E4850704844EE004E
:10380000006C000000107010101010101010107CD0
:1038100000006D00000000000000FE4949494949D0
:10382000ED00006E00000000000000DC6242424239
:1038300042E700006F000000000000003C424242EE
:1038400042423C00007000000000000000D86442CA
:103850004242645840E071000000000000001A2657
:10386000424242261A02077200000000000000EEE9
:103870003220202020F8000073000000000000002B
:103880003E42403C02427C000074000000000010F8
:10389000107C10101010120C0000750000000000C9
:1038A0000000C642424242463B0000760000000053
:1038B000000000EE444428281010000077000000AB
:1038C00000000000DB894A5A5424240000780000DC
:1038D00000000000007624181818246E00007900FB
:1038E000000000000000E742242418181010607A3D
:1038F000000000000000007E44081010227E00003E
:103900007B00030404040404040804040404040302
:10391000007C0808080808080808080808080808BB
:1039200008087D00C02020202020201020202020FA
:1039300020C0007E205A04000000000000000000AB
:103940000000000043C0C0003C664242404042428A
:1039500062361C0000430000000000007000700090
:10396000700007F00FFC1F3E1E1E3C0E3C0F3C0F6C
:10397000700F70007000700070007000700F700F9A
:103980003C0F3C0E3C1E1E3E0FFC07F801E0000001
:103990000000000000000000B8390008000000200E
:1039A000DC000000B80A0008943A0008DC0000209F
:1039B000948D0000C80A000800000000000000000C
:1039C000000000000000000008001000F5320008B0
:1039D0005F000000080010004439000811000000DA
:1039E000100020005539000841000000007A030A49
:1039F000000000000000000001020304060708099F
:103A00000000000001020304010203040607080984
:103A100000000000000000000000000000000000A6
:103A20000000000000000000000000000000000096
:103A30000000000000000000000000000000000086
:103A4000000000000000000009000000000000006D
:103A50000000000000000000000000000000000066
:103A60000000000000000000000000000000000056
:103A70000000000000000000000000000000000046
:103A800000000000AAAAAAAA00000000000000008E
:043A90000000000032
:040000050800018965
:00000001FF
