:020000040800F2
:1000000060140020A1010008910400088904000880
:100010008D0400080D0200085D09000800000000C2
:10002000000000000000000000000000C9060008F9
:10003000950300080000000021050008E107000802
:10004000BB010008BB010008BB010008BB010008A0
:10005000BB010008BB010008BB010008BB01000890
:10006000BB010008BB010008BB010008BB01000880
:10007000BB010008BB010008BB010008BB01000870
:10008000BB010008BB010008BB010008BB01000860
:10009000BB010008BB010008BB010008BB01000850
:1000A000BB010008BB010008BB010008BB01000840
:1000B000BB010008BB010008BB010008BB01000830
:1000C000BB010008BB010008BB010008BB01000820
:1000D000BB010008BB010008BB010008BB01000810
:1000E000BB010008BB010008BB010008BB01000800
:1000F000BB010008BB010008BB010008BB010008F0
:10010000BB010008BB010008BB010008BB010008DF
:10011000BB010008BB010008BB010008BB010008CF
:10012000BB010008BB010008BB0100081102000868
:10013000BB010008BB010008BB010008BB010008AF
:10014000BB010008BB010008BB010008BB0100089F
:10015000BB010008BB010008BB010008BB0100088F
:10016000BB010008BB010008BB010008BB0100087F
:10017000BB010008BB010008BB010008BB0100086F
:10018000BB010008BB010008DFF810D000F02CF81C
:1001900000480047CD0C0008AFF300806014002039
:1001A0000648804706480047FEE7FEE7FEE7FEE711
:1001B000FEE7FEE7FEE7FEE7FEE7FEE7E5070008ED
:1001C00089010008D2B201E000F8012B491EFBD2E0
:1001D00070470022F6E710B513460A460446194652
:1001E000FFF7F0FF204610BD064C074D06E0E06823
:1001F00040F0010394E8070098471034AC42F6D36E
:10020000FFF7C6FF7C1900089C19000800BFFEE735
:1002100010B50B490B4800F041F880B100BF8021B8
:10022000094800F028FA0128F9D00848006810B100
:100230000648006880470249024800F009F810BDEE
:10024000008000185864024000300140080000207F
:100250000246094B9A4201D2084801E0064810388C
:1002600001F000531BB1064B0B40C36002E0044B8E
:100270000B40836070470000106402400060024041
:100280007D0F7D0F21B1026842F00102026003E0A0
:10029000026822F0010202607047000070B5024659
:1002A000002000240025124EB24201D2114B01E081
:1002B0000F4B103B104E0E4036B11E2606EAD124DD
:1002C000166806EA040502E0566906F0800501F0AA
:1002D00000560EB15C6800E01C68084E344004EA29
:1002E000010616B10DB1012000E0002070BD000034
:1002F00010640240006002403C0F3C0F7D0F7D0FF8
:1003000010B501F080034BB122B1436943F0800383
:10031000436103E0436923F08003436180290BD0EC
:100320002AB1036801F01E042343036004E003685C
:1003300001F01E04A343036010BD000010B50022AD
:100340000268134B1A40CC680B6823434C69234363
:100350008C692343CC6923430C6A23434C6A2343AF
:100360008C6A23434C6B23438C6B23431A430260F8
:10037000426922F00702D1E90B3423431A43426158
:100380000B6943604B6883608B68C36010BD0000DD
:100390003F801CF07047F0B50A460021002300247E
:1003A00000BF3DE0012505FA01F3156805EA0304E5
:1003B0009C4234D105684F000326BE40B54305601A
:1003C00015794E00B5400668354305601579012D55
:1003D00002D01579022D16D185684F000326BE4044
:1003E000B543856055794E00B540866835438560D4
:1003F000456801268E40B5434560456896798E4034
:10040000B6B235434560C5684F000326BE40B543CC
:10041000C560D5794E00B540C6683543C560491CF6
:100420001029BFD3F0BDF0B5002300244D07ED0E19
:1004300002FA05F3CE1000F1200555F826504E07BC
:10044000F70E0F26BE40B543CF1000F1200646F848
:100450002750CE1000F1200555F8265045EA030438
:10046000CE1000F1200545F82640F0BD02460020E0
:1004700013690B400BB1012000E0002070470AB166
:10048000018300E04183704700BFFEE700BFFEE745
:100490007047000070B5002100230F22C4781CB300
:1004A000174C246804F4E064C4F5E064C4F3072145
:1004B000C1F10404E3B20A4144789C40E1B284787B
:1004C000144021430C07210E0E4C05786155047829
:1004D00004F01F050124AC4005786D11AD0005F155
:1004E000E025C5F8004109E0047804F01F05012467
:1004F000AC40054D0678761145F8264070BD0000E9
:100500000CED00E000E400E080E100E0024901437E
:10051000024A1160704700000000FA050CED00E08F
:100520007047000029B1064A12680243044B1A6062
:1005300004E0034A12688243014B1A6070470000CE
:100540003038024029B1064A12680243044B1A604F
:1005500004E0034A12688243014B1A6070470000AE
:1005600044380240F0B50021002200240225002674
:100570000223324F3F6807F00C0121B1042905D056
:10058000082937D105E02E4F076036E02D4F076070
:1005900033E02A4F3F1F3F68C7F38056274F3F1F66
:1005A0003F6807F03F036EB1264FB7FBF3F7DFF864
:1005B0008CC0ACF1040CDCF800C0CCF3881C07FB49
:1005C0000CF40CE01E4FB7FBF3F7DFF870C0ACF192
:1005D000040CDCF800C0CCF3881C07FB0CF4174FAC
:1005E0003F1F3F68C7F301477F1C7D00B4FBF5F751
:1005F000076002E0124F076000BF00BF0F4F3F6867
:1006000007F0F0010909104F7A5C0768D74047608E
:100610000A4F3F6807F4E051890A0B4F7A5C47683C
:10062000D7408760054F3F6807F46041490B064F8C
:100630007A5C4768D740C760F0BD000008380240C8
:100640000024F40000127A004800002021B1028842
:1006500042F04002028004E002884FF6BF731A4065
:10066000028070471AB183880B43838002E083883D
:100670008B43838070470246002013890B400BB1E7
:10068000012000E0002070478181704710B50022F2
:10069000028802F441520B884C8823438C88234300
:1006A000CC8823430C8923434C8923438C892343DF
:1006B000CC8923431A430280838B4FF2FF7423407B
:1006C00083830B8A038210BD704700000CB50020A5
:1006D000019000903448006840F48030324908604E
:1006E00000BF3148006800F4003000900198401CC1
:1006F0000190009818B90198B0F5A04FF1D12A489F
:10070000006800F4003010B10120009001E00020EA
:1007100000900098012846D123484030006840F0FE
:1007200080502149403108602048006840F4404032
:100730001E4908601C48083000681B4908310860E1
:100740000846006840F4004008600846006840F42D
:10075000A05008601648091F0860081F006840F094
:100760008070091F086000BF0F48006800F000702B
:100770000028F9D040F205700E4908600A48083098
:10078000006820F003000849083108600846006846
:1007900040F00200086000BF03480830006800F025
:1007A0000C000828F8D10CBD003802400070004051
:1007B00008544007003C0240042808D14FF0E021D3
:1007C000096941F004014FF0E022116107E04FF0A8
:1007D000E021096921F004014FF0E0221161704726
:1007E0007047000010B51548006840F470001349C8
:1007F00008601348006840F00100114908600020BB
:100800000F49083108600E4800680E4908400C493D
:1008100008600D48091D0860081F006820F480204A
:10082000091F0860002006490C310860FFF74EFFE1
:100830004FF0006001498039086010BD88ED00E08C
:1008400000380240FFFFF6FE1030002421B18289FB
:1008500042F40052828104E082894DF6FF731A400F
:100860008281704702460020B1F5007F00D100BFB1
:1008700013880B400BB1012000E0002070470000FE
:100880002DE9FF4705460E460024A14600BFA046BD
:10089000B08900B100BF2C8A24F44054F08804438E
:1008A0002C82AC8941F20C608443B08831890843C2
:1008B000718908430443AC81AC8A24F44074B08944
:1008C0000443AC826846FFF74DFE2048854202D0C3
:1008D0001F48854202D1DDF80C9001E0DDF8089058
:1008E000A88900F4004040B109EBC90000EB0910F1
:1008F00031684900B0FBF1F707E009EBC90000EBF4
:10090000091031688900B0FBF1F76420B7FBF0F003
:1009100004012009642101FB1078A88900F400403B
:1009200040B1322000EBC800B0FBF1F000F007004E
:10093000044308E0322000EB08106421B0FBF1F022
:1009400000F00F0004432C81BDE8FF870010014038
:1009500000140140C1F308028280704700BFFEE727
:10096000014A024900F013B8950A00085800002017
:1009700002E008C8121F08C1002AFAD17047704768
:10098000002001E001C1121F002AFBD170472DE9B0
:10099000F04116460F460446002503E03946B047AD
:1009A000641C6D1C20780028F8D12846BDE8F08131
:1009B00010B54FF44070FFF7A9FD01211020FFF79B
:1009C000C1FD01218803FFF7BDFD01210803FFF7E9
:1009D000B9FD01210846FFF7A5FD01210220FFF71F
:1009E000A1FD01210420FFF79DFD01211020FFF74B
:1009F00099FD01218805FFF795FD10BD10B56FF039
:100A00000400FFF7D9FE074800680749B0FBF1F082
:100A100006490860084600684FF47A714843044963
:100A2000086010BD3400002000127A000000002091
:100A30000400002010B5044603E04FF47A7000F083
:100A400005F8201EA4F10104F7D110BD0021104AC1
:100A500012684243521E4FF0E0235A6100229A610D
:100A60001A46126942F001021A6100BF4FF0E022FB
:100A7000116901F48032002AF8D04FF0E0221269A7
:100A800022F001024FF0E0231A6100229A617047C0
:100A90000000002070B504460D46A1B20548FFF7DE
:100AA00059FF00BF80210348FFF7DCFE0028F9D082
:100AB000204670BD0010014030B58FB004460D4691
:100AC0003C216846FFF785FB04954FF0C06000901D
:100AD0004020039000200B90029408904FF4806017
:100AE0000690002009900B48019000200790059087
:100AF0004FF400300A9069460748FFF71FFC0122B7
:100B000010210548FFF7FCFB01210348FFF7BAFB62
:100B10000FB030BD0C3001405864024010B500F0F9
:100B200005F800F035F800F063F810BD1CB505229B
:100B300003211648FFF777FC052211461348FFF7FB
:100B400072FC02208DF8040000208DF806000820B9
:100B5000009000208DF8070003208DF805006946FD
:100B60000A48FFF718FC02208DF8040000208DF8D9
:100B700006002020009000208DF8070003208DF84B
:100B8000050069460148FFF706FC1CBD0004024051
:100B900000B585B01020ADF80C000120ADF80800BC
:100BA0000220ADF806000020ADF81000ADF80400FA
:100BB0004FF44040ADF800000020ADF80E004FF4B7
:100BC0008270ADF802004FF40070ADF80A0069467B
:100BD0000648FFF75BFD012202210448FFF742FDB2
:100BE00001210248FFF732FD05B000BD0030014091
:100BF00008B53B208DF8000001208DF8030005208A
:100C00008DF8010000208DF802006846FFF742FCD5
:100C100008BD00000149086070470000080000207E
:100C200070B505460E4600240CE000BF02210A48BC
:100C3000FFF721FD0028F9D0295D0748FFF724FDC3
:100C4000601C84B2B442F0DB00BF80210248FFF791
:100C500012FD0128F9D070BD003001401CB50446DA
:100C600001212068FFF75EFC0020009001902089A0
:100C7000009001208DF8040000208DF8060001206E
:100C80008DF8050069466068FFF785FB1CBD10B54F
:100C90000446E27A21896068FFF7F1FB10BD10B5C8
:100CA0000446A27A21896068FFF7E9FB10BD10B500
:100CB000044621896068FFF7D9FB18B92046FFF781
:100CC000E6FF02E02046FFF7EAFF10BD1CB5FFF784
:100CD0006FFE00F063FAFFF791FE00F00BF90020C1
:100CE00000F0E2F81948FFF7B9FF1948FFF7B6FF1F
:100CF0001848FFF7B3FF00204FF47841164B41220C
:100D0000CDE90010014600F093F94FF478404FF41C
:100D1000FC61114B11A2CDE900101021002000F060
:100D20000FFA12E00948FFF7C2FF0948FFF7BFFFBB
:100D30000848FFF7BCFF0DA0FFF712FE0FA0FFF75A
:100D40000FFE4FF47A70FFF775FEEBE724120008F0
:100D50003C120008541200081000002048656C6C1A
:100D60006F20576F726C64210000000048656C6C46
:100D70006F20576F726C64210D0A0000C4E3BAC380
:100D80000D0A000001200149087070470C00002086
:100D900070B5044619E014F8016B14F8015BFF2EDE
:100DA00008D1FF2D00D111E005EB85014800FFF7C8
:100DB00041FE09E0304600F09BF9002D03DD294695
:100DC000204600F0A3F92C4400BFE4E700BF70BD4B
:100DD0002DE9F84F04460D4616461F46DDF828A0BB
:100DE000802C01DA802D01DBBDE8F88FA019401EB0
:100DF000802802DBC4F1800086B2E819401E8028FA
:100E000002DBC5F1800087B200F0D4F805EB070CD7
:100E1000ACF1010C0CF0FF0304EB060CACF1010C7F
:100E20000CF0FF02E9B2E0B200F0CEF84FEA2A205F
:100E30008DF800000AF0FF008DF801004FF0000867
:100E400028E006FB07F0A0EB08001FFA80F9B9F5CF
:100E5000006F01DD4FF40069B8F1000F0FD11148A8
:100E6000002109E09DF8002000F8012B9DF80120E9
:100E700000F8012B4A1C91B24945F3DB00BF4FF645
:100E8000FF7000EA4901074800F040F908F50060EA
:100E90001FFA80F806FB07F04045D2DC00F0BEF8F0
:100EA00000BFA1E75C00002038B5044680231A4645
:100EB000002108460094FFF78BFF38BD70B502464D
:100EC0000B461188C81DC11700EB5171CD100021D0
:100ED0000BE050886843401C566801FB0064207892
:100EE000984201D1601C70BD491C90688842F0D8BE
:100EF0000020F8E710B5FFF711FE0A48FFF78AFE59
:100F000000F016F800F042F800F054F80648FFF739
:100F10003FFF00F083F8012291020448FFF7AFFA87
:100F200010BD0000850D00086C120008000402408E
:100F30001CB501208DF8040000208DF80600022069
:100F40008DF805000120009069460E48FFF723FA4E
:100F50000220009069460B48FFF71DFA1020009010
:100F600069460948FFF717FA4FF480600090694618
:100F70000448FFF710FA00224FF480610148FFF7A0
:100F80007EFA1CBD000402400000024010B50022A1
:100F900001210748FFF773FA0220FFF74BFD0122FA
:100FA00011460348FFF76BFA7820FFF743FD10BDA9
:100FB0000004024010B5002210210248FFF75FFA3A
:100FC00010BD000000000240F8B507460C4615466B
:100FD0001E462A2000F08CF800200090B81CC0B2F9
:100FE0008DF80100A81CC0B28DF8030004216846EA
:100FF00000F08CF82B2000F07BF8E01CC0B28DF8DC
:101000000100F01CC0B28DF803000421684600F016
:101010007DF82C2000F06CF8F8BD000010B501221E
:1010200010210248FFF72BFA10BD0000000002401B
:101030002DE9F84F06460F4690461D46DDE90A9A0F
:10104000FFF7B8FF95F802C0BC44ACF1010C0CF0FE
:10105000FF0395F800C0B444ACF1010C0CF0FF02A2
:10106000F9B2F0B2FFF7B0FF2988C81DC11700EB35
:101070005171C1F3C70B1D4C41462846FFF71EFFB7
:101080000090002125E0009801FB0B0200201BE0EE
:1010900002EBE00C9CF8003000F0070C03FA0CFCAB
:1010A0000CF0800CBCF1000F06D04FEA292C04F89C
:1010B00001CB04F8019B05E04FEA2A2C04F801CB90
:1010C00004F801AB431CD8B22B888342E0DC481CF7
:1010D000C1B268888842D6DC0448201A81B203482D
:1010E00000F014F8FFF79AFFBDE8F88F5C000020CD
:1010F00001B5002202210448FFF7C1F90121684629
:10110000FFF78EFD08BD00000004024070B50446E4
:101110000D46012202210848FFF7B1F900200749D6
:10112000087029462046FFF7C7FC00BF0348007837
:101130000028FBD070BD0000000402400C0000201D
:101140002DE9FC4706460F4614461D46DDE90A898F
:101150001EE02888304480280DDB0026688838444B
:1011600087B268883844802800DB14E02078202883
:1011700001D1641C0CE0CDE9008922782B46394668
:101180003046FFF755FF2888304486B2641C00BF04
:1011900020780028DDD100BFBDE8FC8710B500F045
:1011A00003F800F023F810BD1CB5072209210E48F2
:1011B000FFF739F907220A210B48FFF734F902201B
:1011C0008DF8040000208DF8060001208DF807003E
:1011D0004FF4C060009003208DF805006946024876
:1011E000FFF7D9F81CBD0000000002401FB54FF406
:1011F000E13000900020ADF80C000C20ADF80A00A2
:101200000020ADF80800ADF80600ADF8040069460E
:101210000348FFF735FB01210148FFF717FB1FBD0E
:1012200000100140100000000010024020000001EA
:101230006C65643000000000000000001000000039
:1012400000100240400000016C65643100000000A5
:10125000000000000400000000080240002000011F
:101260006C65643200000000000000001100FF0CFB
:10127000B103012C2DB203012C2DB306012C2D013D
:101280002C2DB40107C003A20284C101C5C2020A09
:1012900000C3028A2AC4028AEEC5010E3601C8E0E4
:1012A000100F1A0F182F2820221F1B2337000702A8
:1012B00010E1100F1B0F17332C292E3030393F004F
:1012C0000703102A040000007F2B040000009FF693
:1012D00001003A01052900FFFF2000000000000086
:1012E00000000000000000000000210000001010BD
:1012F0001010101010000010100000220012242402
:101300004800000000000000000000002300000072
:101310001212127E2424247E24242400002400009F
:10132000083C4A4A48380C0A0A4A4A3C0808250040
:10133000000044A4A8A8B0541A2A2A4A440000264F
:1013400000000030484848506EA494988976000008
:101350002700602020400000000000000000000086
:1013600000280002040808101010101010080804CB
:101370000200290040201010080808080808101072
:101380002040002A000000001010D63838D6101077
:10139000000000002B00000000000808087F08087B
:1013A00008000000002C0000000000000000000009
:1013B0000000602020402D00000000000000007EA2
:1013C000000000000000002E0000000000000000EF
:1013D00000000000606000002F0000020404040808
:1013E0000810101020204040003000000018244257
:1013F00042424242424224180000310000000838B4
:1014000008080808080808083E0000320000003CF0
:101410004242420204081020427E000033000000D5
:101420003C4242020418040242423C0000340000E4
:1014300000040C0C142424447F04041F0000350015
:1014400000007E40404078440202424438000036AA
:10145000000000182440405C62424242221C00000E
:10146000370000007E42040408081010101010001D
:1014700000380000003C4242422418244242423CD0
:101480000000390000003844424242463A02022439
:101490001800003A000000000000181800000000CA
:1014A000181800003B0000000000000010000000C1
:1014B00000001010103C0000000204081020402022
:1014C0001008040200003D0000000000007E000043
:1014D0007E0000000000003E0000004020100804D4
:1014E00002040810204000003F0000003C4242621D
:1014F0000408080800181800004000000038445A8A
:10150000AAAAAAAAAA5C423C00004100000010104E
:10151000182828243C444242E7000042000000F81A
:10152000444444784442424244F8000043000000EE
:101530003E42428080808080424438000044000067
:1015400000F8444242424242424244F80000450010
:101550000000FC424848784848404242FC000046AF
:10156000000000FC424848784848404040E0000005
:10157000470000003C44448080808E84444438000E
:101580000048000000E7424242427E42424242E7B7
:101590000000490000007C101010101010101010F6
:1015A0007C00004A0000003E0808080808080808F7
:1015B000080888F04B000000EE444850705048483E
:1015C0004444EE00004C000000E0404040404040F9
:1015D000404042FE00004D000000EE6C6C6C6C6CF4
:1015E00054545454D600004E000000C76262525258
:1015F0004A4A4A4646E200004F00000038448282D0
:1016000082828282824438000050000000FC424204
:1016100042427C40404040E000005100000038441D
:10162000828282828282B24C38060052000000FC24
:101630004242427C4848444442E3000053000000D8
:101640003E4242402018040242427C000054000006
:1016500000FE9210101010101010103800005500ED
:101660000000E74242424242424242423C000056AF
:10167000000000E7424244242428281810100000EB
:1016800057000000D654545454546C28282828007D
:101690000058000000E7422424181818242442E7C8
:1016A000000059000000EE444428281010101010CB
:1016B0003800005A0000007E8404080810202042F0
:1016C00042FC00005B001E101010101010101010D3
:1016D0001010101E005C0000402020201010100888
:1016E0000804040402025D007808080808080808D5
:1016F000080808080878005E0018240000000000B0
:1017000000000000000000005F000000000000007A
:101710000000000000000000FF60006010000000FA
:101720000000000000000000000061000000000058
:10173000000038440C34444C3600006200000000C5
:10174000C0404058644242426458000063000000B8
:10175000000000001C22404040221C0000640000E9
:1017600000000602023E42424242463B0000650043
:101770000000000000003C42427E40423C00006607
:10178000000000000C12107C10101010107C0000E3
:1017900067000000000000003E444438403C4242E4
:1017A0003C6800000000C040405C6242424242E7A8
:1017B00000006900000030300000701010101010A0
:1017C0007C00006A0000000C0C00001C04040404EF
:1017D000040444786B00000000C040404E48507044
:1017E0004844EE00006C0000001070101010101043
:1017F0001010107C00006D00000000000000FE4989
:1018000049494949ED00006E00000000000000DC7D
:101810006242424242E700006F0000000000000008
:101820003C42424242423C00007000000000000086
:1018300000D864424242645840E071000000000059
:1018400000001A26424242261A02077200000000D7
:10185000000000EE3220202020F80000730000007D
:10186000000000003E42403C02427C000074000048
:1018700000000010107C10101010120C00007500F9
:10188000000000000000C642424242463B00007693
:1018900000000000000000EE444428281010000062
:1018A0007700000000000000DB894A5A542424001D
:1018B0000078000000000000007624181818246E3C
:1018C00000007900000000000000E74224241818FE
:1018D0001010607A000000000000007E4408101024
:1018E000227E00007B0003040404040404080404B2
:1018F00004040403007C080808080808080808080D
:101900000808080808087D00C0202020202020109A
:101910002020202020C0007E205A0400000000006B
:10192000000000000000000043C0C0003C664242CE
:101930004040424262361C000043000000000000AC
:1019400070007000700007F00FFC1F3E1E1E3C0E62
:101950003C0F3C0F700F7000700070007000700042
:10196000700F700F3C0F3C0E3C1E1E3E0FFC07F824
:1019700001E0000000000000000000009C190008C9
:10198000000000205C00000070090008F819000841
:101990005C00002004140000800900080000000022
:1019A000000000000000000000000000080010001F
:1019B000D91200085F000000080010002819000874
:1019C000110000001000200039190008410000003B
:1019D000007A030A00000000000000000102030476
:1019E00006070809000000000102030401020304C5
:0819F0000607080900000000D1
:040000050800018965
:00000001FF
