:020000040800F2
:10000000C0D8012061020008B9490008D10B0008DE
:10001000B5490008E1080008755300080000000019
:10002000000000000000000000000000A101000826
:10003000BD09000800000000FD010008394C00085F
:100040007B0200087B0200087B0200087B0200089C
:100050007B0200087B0200087B0200087B0200088C
:100060007B0200087B0200087B0200087B0200087C
:100070007B0200087B0200087B0200087B0200086C
:100080007B0200087B0200087B0200087B0200085C
:100090007B0200087B0200087B0200087B0200084C
:1000A0007B0200087B0200087B0200087B0200083C
:1000B0007B0200087B020008014D00087B0200085B
:1000C0007B0200087B0200087B0200087B0200081C
:1000D0007B0200087B0200087B0200087B0200080C
:1000E0007B0200087B0200087B0200087B020008FC
:1000F0007B0200087B0200087B0200087B020008EC
:100100007B0200087B0200087B0200087B020008DB
:100110007B0200087B0200087B0200087B020008CB
:100120007B0200087B0200087B020008E50800084B
:100130007B0200087B0200087B0200087B020008AB
:100140007B0200087B0200087B0200087B0200089B
:100150007B0200087B0200087B0200087B0200088B
:100160007B0200087B0200087B0200087B0200087B
:100170007B0200087B0200087B0200087B0200086B
:100180007B0200087B020008DFF810D000F0FCFAC8
:1001900000480047C1100408AFF30080C0D8012018
:1001A0002C4B19680868B0E8F04F80F30988BFF35A
:1001B0006F8F4FF0000080F311887047000000003F
:1001C00008480068006880F308884FF0000080F35A
:1001D000148862B661B6BFF34F8FBFF36F8F00DF35
:1001E00000BF00BF08ED00E0DFF80C00016841F43B
:1001F00070010160704700BF88ED00E0EFF30980F7
:10020000BFF36F8F134B1A681EF0100F08BF20ED5D
:10021000108A20E9F04F106009B44FF0500080F3CD
:100220001188BFF34F8FBFF36F8F47F095FE4FF0EC
:10023000000080F3118809BC19680868B0E8F04F25
:100240001EF0100F08BFB0EC108A80F30988BFF3CE
:100250006F8F70476C000020EFF30580704700003F
:100260000648804706480047FEE7FEE7FEE7FEE750
:10027000FEE7FEE7FEE7FEE7FEE7FEE76D4C00085F
:10028000890100082DE9F05F0546002092469B4653
:1002900088460646814640241BE02846414647469C
:1002A000224600F0A8F853465A46C01A914110D38E
:1002B00011461846224600F08FF82D1A67EB010808
:1002C0004F4622460120002100F086F817EB000976
:1002D0004E41201EA4F10104DFDC484631462A4687
:1002E0004346BDE8F09F40EA01039B0703D009E0C5
:1002F00008C9121F08C0042AFAD203E011F8013B12
:1003000000F8013B521EF9D27047D2B201E000F86A
:10031000012B491EFBD270470022F6E710B51346A9
:100320000A4604461946FFF7F0FF204610BD30B5D7
:1003300005462A460B4612F8010B13F8014B08B18B
:10034000A042F8D01CB1002802D06D1CF1E728466D
:1003500030BD421C10F8011B0029FBD1801A7047E8
:1003600010B5002200E0521C835C8C5CA34201D1DA
:10037000002BF8D1D8B2E1B2401A10BD034611F8F3
:10038000012B00F8012B002AF9D11846704730B52F
:1003900005460020034600E05B1C934205D2EC5C5E
:1003A000C85C201A01D1002CF6D130BD30B50B4607
:1003B000014600202022012409E021FA02F59D4295
:1003C00005D303FA02F5491B04FA02F52844151E69
:1003D000A2F10102F1DC30BD202A04DB203A00FA50
:1003E00002F1002070479140C2F1200320FA03F38C
:1003F000194390407047202A04DB203A21FA02F08A
:100400000021704721FA02F3D040C2F1200291404E
:100410000843194670472DE9FE4F804681EA0300E4
:10042000C00F0C46009021F0004123F00045B8EBCE
:100430000200A94105D24046214690461C460B4683
:10044000024623F00040104347D0270DC7F30A00AF
:10045000C3F30A510290401A019040286BDAC3F3AB
:10046000130040F4801B0098924620B10023D2EB89
:10047000030A63EB0B0B01985946C0F1400250464A
:10048000FFF7AAFF06460D4650465946019A00F06E
:100490008DF910EB08006141002487EA115284EACB
:1004A000E7731A4340D0009A62B3019A012A4FEAD7
:1004B000075215DC001B61EB02014FF0004202EA1B
:1004C0000752CDE90042001C41F5801132462B460F
:1004D00000F08DF903B0BDE8F08F40462146F9E702
:1004E000001B61EB0201001C41F5801300185B4109
:1004F0002018A2F5001747EB030140EAD570B619A2
:100500006D4111E06D084FEA360645EAC0754FEAC5
:100510000752001B61EB0201001C41F580114908E4
:100520004FEA30000019514132462B4603B0BDE876
:10053000F04F00F04DB90098012240000023D0EBAD
:10054000020263EBE073009821464FEAE074B8EBD7
:10055000000061EB0401E9E783F000435BE781F011
:10056000004158E72DE9FE4F81EA030404F00044FE
:1005700021F0004100944FF0000B23F0004350EABB
:1005800001045ED052EA03045BD0C3F30A54C1F302
:100590000A552C44A4F2F3340194A0FB0254C1F395
:1005A000130141F48011C3F3130343F4801301FBDF
:1005B000024400FB034E840A970A44EA815447EA46
:1005C0008357A4FB076802958D0A05FB07854FEA50
:1005D000932C04FB0C542705029D4FEA065847EA6A
:1005E0001637B5EB08056EEB070C870E920E47EA3F
:1005F000811742EA8312A7FB0201B6EB0B0164EB01
:1006000000042B0D43EA0C335E1844EB1C50DA4611
:100610005146E7FB0201C5F313044FEA0B3343EAEB
:1006200014534FEA0432019C43EA0603A4F10C047C
:100630000294009CCDE900B400F0D9F803B0BDE805
:10064000F08F00200146F9E72DE9F04D81EA03041F
:1006500004F0004B21F0004514464FF0000A23F04F
:10066000004150EA050220D054EA01021DD0C5F332
:100670000A570246C5F31303C1F31300C1F30A5628
:1006800040F4801543F48013A7EB0608101BD646F0
:1006900008F2FD3873EB050002D308F1010801E010
:1006A00092185B41B8F1000F03DA00200146BDE863
:1006B000F08D00204FF48011064684460EE0171B93
:1006C00073EB050705D3121B63EB050306434CEAE6
:1006D000010C49084FEA300092185B4150EA0107CB
:1006E000EDD152EA030012D082EA040083EA050148
:1006F000084305D0101BAB4106D20122002306E0BF
:1007000000224FF0004302E06FF0010253101AEB99
:1007100006004CEB085110EB0A0041EB0B01BDE861
:10072000F04D00F055B8C1F30A52C1F3130140F285
:10073000FF3341F480119A4202DA002001467047EB
:1007400040F233439A42A2F2334202DC5242FFF7B4
:1007500052BEFFF741BE000030B5041E71F1000427
:1007600004DB4FF00044404264EB0101141E73F1BE
:10077000000405DB1C464FF00043524263EB0403C8
:10078000994208BF904230BD064C074D06E0E06834
:1007900040F0010394E8070098471034AC42F6D3C8
:1007A000FFF7F6FC740E0508940E0508202A06DBF8
:1007B000CB17203A41FA02F043EAE07306E041FA2F
:1007C00002F3D040C2F1200291400843194670471D
:1007D00010B5141E73F1000408DA401C41F1000149
:1007E00092185B411A4301D120F0010010BD2DE9A0
:1007F000F04D92469B4611B1B1FA81F202E0B0FA97
:1008000080F220329046FFF7E7FD04460F4640EAAB
:100810000A0041EA0B0153465A46084313D01146D9
:1008200053EA010019D0C8F140025046FFF7E3FD3A
:1008300005460E46504659464246FFF7CDFD084351
:1008400005D0012004E020463946BDE8F08D0020A7
:10085000054346EAE0762C4337430A986305E40AE9
:10086000A0EB08000022FD0A44EA47540A3002D5F2
:1008700000200146E9E7010510196941DDE9084555
:1008800000196941BDE8F04DA2E770B58C1810F869
:10089000015B15F0070301D110F8013B2A1106D1C5
:1008A00010F8012B03E010F8016B01F8016B5B1EDF
:1008B000F9D12B0705D40023521E0DD401F8013BBA
:1008C000FAE710F8013BCB1A921C03E013F8015B26
:1008D00001F8015B521EF9D5A142D8D3002070BDAA
:1008E00000BFFEE710B50B490B4800F035F880B1AA
:1008F00000BF8021094804F01FF90128F9D00848F9
:10090000006810B10648006880470249024800F0BC
:1009100009F810BD00800018586402400030014002
:100920000C0000200246094B9A4201D2084801E01F
:100930000648103801F000531BB1064B0B40C36052
:1009400002E0044B0B4083607047000010640240DB
:10095000006002407D0F7D0F70B50246002000242C
:100960000025124EB24201D2114B01E00F4B103B59
:10097000104E0E4036B11E2606EAD124166806EA4D
:10098000040502E0566906F0800501F000560EB13C
:100990005C6800E01C68084E344004EA010616B1A9
:1009A0000DB1012000E0002070BD00001064024085
:1009B000006002403C0F3C0F7D0F7D0F7047000030
:1009C00051B18200A2F1C042126842F001038200DC
:1009D000A2F1C042136009E08200A2F1C042126895
:1009E000034B1A408300A3F1C0431A607047000014
:1009F000FEFF0F00D0E901121143C26811430269E2
:100A000011434269114382691143C2691143026A69
:100A10001143426A1143826A1143C26A1143026B55
:100A2000114302689200A2F1C04211608168082956
:100A30000BD101688900A1F1C041096841F0400271
:100A400001688900A1F1C0410A60416B0968426BED
:100A5000526841EA0211426B926841EA0221426BFC
:100A6000928941EA0241426B128A41EA0251426B89
:100A7000127D41EA0261426B926911430268521C85
:100A80009200A2F1C0421160C16AB1F5804F1BD142
:100A9000816B0968826B526841EA0211826B92682D
:100AA00041EA0221826B128A41EA0251826B127D75
:100AB00041EA0261826B9269114302689200A2F1DD
:100AC000C042C2F8041107E06FF07042016889006B
:100AD000A1F1C041C1F804217047F0B50A460021D8
:100AE0000023002400BF3DE0012505FA01F315684D
:100AF00005EA03049C4234D105684F000326BE403A
:100B0000B543056015794E00B5400668354305606C
:100B10001579012D02D01579022D16D185684F0067
:100B20000326BE40B543856055794E00B5408668C2
:100B300035438560456801268E40B543456045686C
:100B400096798E40B6B235434560C5684F0003269E
:100B5000BE40B543C560D5794E00B540C668354343
:100B6000C560491C1029BFD3F0BDF0B50023002497
:100B70004D07ED0E02FA05F3CE1000F1200555F8F1
:100B800026504E07F70E0F26BE40B543CF1000F19A
:100B9000200646F82750CE1000F1200555F82650C3
:100BA00045EA0304CE1000F1200545F82640F0BDCB
:100BB0000246002013690B400BB1012000E0002029
:100BC0007047018370470AB1018300E04183704799
:100BD00000BFFEE770B50446002617480588408828
:100BE00045431548808846F60401884216D11248CC
:100BF0008079012812D100200F4988712A2048816C
:100C00002B2088810021084603F020FE01200A499C
:100C100088712B2048812A20888103E00021084622
:100C200003F014FE03F0B0FE002602E00348048047
:100C3000761CAE42FAD370BD380300200000086075
:100C40002DE9F84F07460D4690469946DDF828B045
:100C5000A8EB0700401C1FFA80FAA9EB0500401C16
:100C600080B20090002414E0281981B2384603F0C5
:100C7000EDFD03F089FE002607E004FB0A603BF867
:100C8000100006490880701C86B25645F5DB601CD2
:100C900084B200988442E7DBBDE8F88F000008606A
:100CA00010B50446002C52D158498871F0200880B4
:100CB0004FF4A07048800846808849F2413188424C
:100CC0000BD05248808846F60401884205D04F4830
:100CD000808845F2103188421AD12C204B49088176
:100CE0002A2048812B2088810846808846F6040106
:100CF000884205D04548808845F21031884206D1A7
:100D00004FF4A070414908804FF4F070488079E0BA
:100D10003E48808845F21051884210D14FF430503F
:100D20003A4908814FF4285048814FF42C5088816B
:100D30004FF4F07008804FF44870488062E0222041
:100D40003249088120204881212088815AE00120F1
:100D50002E4988714FF4A0700880F0204880084622
:100D6000808849F24131884205D02848808845F280
:100D70001031884207D12C20244908812A2048813B
:100D80002B2088812BE02148808846F60401884288
:100D900007D12C201D4908812B2048812A208881D9
:100DA0001DE01A48808845F21051884210D14FF456
:100DB0003050164908814FF4285048814FF42C5088
:100DC00088814FF4487008804FF4F070488006E046
:100DD00022200E49088121204881202088810B484B
:100DE000808846F60401884205D00848808845F28C
:100DF0001031884206D14FF4F070044908804FF456
:100E0000A0704880002003F0B3FB10BD3803002021
:100E100000B5A1B00020209001211A2003F0D8FDD8
:100E20000121084603F0E4FD02201E9001208DF808
:100E30007C0000208DF87E0002208DF87D000120CE
:100E40008DF87F001EA9FE48FFF747FE4EF2B370F3
:100E50001E9002208DF87C0000208DF87E0003207B
:100E60008DF87D0001208DF87F001EA9F548FFF761
:100E700034FE4FF680701E9002208DF87C0000201A
:100E80008DF87E0003208DF87D0001208DF87F0015
:100E90001EA9ED48FFF721FE0C220021E948FFF7CB
:100EA00064FE0C220121E748FFF75FFE0C220421BB
:100EB000E448FFF75AFE0C220521E248FFF755FEF1
:100EC0000C220721DF48FFF750FE0C220821DD48E5
:100ED000FFF74BFE0C220921DA48FFF746FE0C22F1
:100EE0000A21D848FFF741FE0C220D21D548FFF713
:100EF0003CFE0C220E21D348FFF737FE0C220F21B7
:100F0000D048FFF732FE0C220721CF48FFF72DFE15
:100F10000C220821CC48FFF728FE0C220921CA48E0
:100F2000FFF723FE0C220A21C748FFF71EFE0C2202
:100F30000B21C548FFF719FE0C221146C248FFF7E6
:100F400014FE0C220D21C048FFF70FFE0C220E21CB
:100F5000BD48FFF70AFE0C220F21BB48FFF705FE34
:100F60000F200890002009903C200A9000200B9050
:100F70000C900D900E900920019000200290082006
:100F80000390002004900590069007900F90109019
:100F9000119010201290002013901590149016902C
:100FA00017904FF480501890002019904FF4804013
:100FB0001A9000201B9008A81C9001A81D900FA853
:100FC000FFF718FD01210020FFF7FAFC32200AF09C
:100FD000FDFC0121002003F0E1FC32200AF0F6FCC8
:100FE000002003F0B9FA9949888008468088FF28D4
:100FF0000ADB084680884FF6FF71884204D0934888
:101000008088B0F5134F7CD1D32003F0B1FC03F0FE
:1010100099FA8E49888003F095FA8C49888003F00C
:1010200091FA8A498880084680884FF6FF7101EA64
:1010300000208649888003F085FA8449898808431E
:10104000824988800846808849F24131884278D0B8
:10105000BF2003F08DFC03F075FA7C49888003F013
:1010600071FA7A49888003F06DFA7849888003F034
:1010700069FA76498880084680884FF6FF7101EA50
:1010800000207249888003F05DFA7049898808431E
:101090006E4988800846808846F60401884250D010
:1010A000D42003F065FC03F04DFA6849888003F012
:1010B00049FA6649888003F045FA64498880084601
:1010C00080884FF6FF7101EA00206049888003F0B4
:1010D00039FA5E49898808435C49888008468088D7
:1010E00045F2103188422CD04FF45A4003F040FCB6
:1010F00003F028FA554988804FF45B4003F038FC30
:1011000000E01EE003F01EFA5049888008468088FF
:101110004FF6FF7101EA00204C4988804FF45C4093
:1011200003F026FC03F00EFA484989880843474932
:10113000888008468088B0F5004F02D145F21050F3
:1011400088804248808849F2413188420BD03F482C
:10115000808845F21031884205D03C48808845F2AD
:10116000105188421DD13A48006820F00F004FF01E
:101170002041C1F81C010846D0F81C0120F4706021
:10118000C1F81C010846D0F81C0140F00300C1F86A
:101190001C010846D0F81C0140F40070C1F81C0185
:1011A00028E02A48808846F60401884205D027486E
:1011B00080884CF2055188421CD12548006820F0F7
:1011C0000F004FF02041C1F81C010846D0F81C0167
:1011D00020F47060C1F81C010846D0F81C0140F0F2
:1011E0000A00C1F81C010846D0F81C0140F4406018
:1011F000C1F81C011548818816A004F0BDF81348F9
:10120000808849F2413188427ED1CF2003F0B0FB83
:10121000002003F0A1FB2098401C2090C12003F087
:101220009BFB302003F098FBED2003F0A1FB642032
:1012300003F092FB032003F08FFB122012E000006A
:1012400000040240000C024000100240380300205D
:101250001C0100A0204C43442049443A25780D0A43
:101260000000000003F078FB812003F075FBE8200C
:1012700003F07EFB852003F06FFB102003F06CFB76
:101280007A2003F069FBCB2003F072FB392003F0D6
:1012900063FB2C2003F060FB002003F05DFB342097
:1012A00003F05AFB022003F057FBF72003F060FB2A
:1012B000202003F051FBEA2003F05AFB002003F04A
:1012C0004BFB002003F048FBC02003F051FB1B2028
:1012D00003F042FBC12003F04BFB012003F03CFB79
:1012E000C52003F045FB302003F036FB302003F02F
:1012F00033FBC72003F03CFBB72003F02DFB362067
:1013000003F036FB482000E0AEE003F025FB3A2076
:1013100003F02EFB552003F01FFBB12003F028FB48
:10132000002003F019FB1A2003F016FBB62003F08F
:101330001FFB0A2003F010FBA22003F00DFBF2209C
:1013400003F016FB002003F007FB262003F010FB40
:10135000012003F001FBE02003F00AFB0F2003F063
:10136000FBFA2A2003F0F8FA282003F0F5FA082007
:1013700003F0F2FA0E2003F0EFFA082003F0ECFA83
:10138000542003F0E9FAA92003F0E6FA432003F021
:10139000E3FA0A2003F0E0FA0F2003F0DDFA002060
:1013A00003F0DAFA002003F0D7FA002003F0D4FAB1
:1013B000002003F0D1FAE12003F0DAFA002003F074
:1013C000CBFA152003F0C8FA172003F0C5FA07205E
:1013D00003F0C2FA112003F0BFFA062003F0BCFAB2
:1013E0002B2003F0B9FA562003F0B6FA3C2003F0A4
:1013F000B3FA052003F0B0FA102003F0ADFA0F2085
:1014000003F0AAFA3F2003F0A7FA3F2003F0A4FA62
:101410000F2003F0A1FA2B2003F0AAFA002003F01A
:101420009BFA002003F098FA012003F095FA3F2080
:1014300003F092FA2A2003F09BFA002003F08CFAC2
:10144000002003F089FA002003F086FAEF2003F071
:1014500083FA112003F08CFA78200AF0B7FA2920D9
:1014600003F086FA03F05CB8FE48808846F6040173
:1014700088427CD1112003F07BFA14200AF0A6FAEE
:10148000D02003F075FA072003F066FA422003F03B
:1014900063FA1D2003F060FAD12003F069FA0020FE
:1014A00003F05AFA1A2003F057FA092003F054FA0D
:1014B000D22003F05DFA012003F04EFA222003F05F
:1014C0004BFAC02003F054FA102003F045FA3B20F9
:1014D00003F042FA002003F03FFA022003F03CFA46
:1014E000112003F039FAC52003F042FA032003F07B
:1014F00033FAC82003F03CFA002003F02DFA25202F
:1015000003F02AFA212003F027FA052003F024FA39
:10151000002003F021FA0A2003F01EFA652003F0F0
:101520001BFA252003F018FA772003F015FA502053
:1015300003F012FA0F2003F00FFA002003F00CFA68
:10154000F82003F015FA012003F006FAFE2003F05C
:101550000FFA002003F000FA022003F0FDF920202A
:1015600003F006FA362003F003FA082000E02CE02E
:1015700003F0F2F93A2003F0FBF9552003F0ECF9FF
:101580002B2003F0F5F9002003F0E6F9002003F02A
:10159000E3F9012003F0E0F93F2003F0DDF92A2010
:1015A00003F0E6F9002003F0D7F9002003F0D4F9A6
:1015B000012003F0D1F9DF2003F0CEF978200AF002
:1015C00005FA292003F0D4F94CE7A648808845F2B3
:1015D0001031884240F07C87ED2003F0C9F90120EA
:1015E00003F0BAF9FE2003F0B7F9EE2003F0C0F9DA
:1015F000DE2003F0B1F9212003F0AEF9F12003F071
:10160000B7F9012003F0A8F9DF2003F0B1F91020A9
:1016100003F0A2F9C42003F0ABF98F2003F09CF98A
:10162000C62003F0A5F9002003F096F9E22003F0AC
:1016300093F9E22003F090F9E22003F08DF9BF2046
:1016400003F096F9AA2003F087F9B02003F090F98F
:101650000D2003F081F9002003F07EF90D2003F046
:101660007BF9002003F078F9112003F075F90020D0
:1016700003F072F9192003F06FF9002003F06CF900
:10168000212003F069F9002003F066F92D2003F012
:1016900063F9002003F060F93D2003F05DF90020BC
:1016A00003F05AF95D2003F057F9002003F054F9D4
:1016B0005D2003F051F9002003F04EF9B12003F052
:1016C00057F9802003F048F9002003F045F98B20FA
:1016D00003F042F9002003F03FF9962003F03CF9B3
:1016E000002003F039F9B22003F042F9002003F0A2
:1016F00033F9002003F030F9022003F02DF9002027
:1017000003F02AF9032003F027F9002003F024F95D
:10171000B32003F02DF9002003F01EF9002003F0A0
:101720001BF9002003F018F9002003F015F9002040
:1017300003F012F9002003F00FF9002003F00CF978
:10174000002003F009F9002003F006F9002003F05F
:1017500003F9002003F000F9002003F0FDF8002059
:1017600003F0FAF8002003F0F7F8002003F0F4F893
:10177000002003F0F1F8002003F0EEF8002003F061
:10178000EBF8002003F0E8F8002003F0E5F8002073
:1017900003F0E2F8002003F0DFF8002003F0DCF8AB
:1017A000002003F0D9F8B42003F0E2F88B2003F016
:1017B000D3F8002003F0D0F8962003F0CDF80020F5
:1017C00003F0CAF8A12003F0C7F8002003F0C4F822
:1017D000B52003F0CDF8022003F0BEF8002003F09E
:1017E000BBF8032003F0B8F8002003F0B5F804209C
:1017F00003F0B2F8002003F0AFF8B62003F0B8F819
:10180000002003F0A9F8002003F0A6F8B72003F0A9
:10181000AFF8002003F0A0F8002003F09DF83F206F
:1018200003F09AF8002003F097F85E2003F094F894
:10183000002003F091F8642003F08EF8002003F0FC
:101840008BF88C2003F088F8002003F085F8AC209A
:1018500003F082F8002003F07FF8DC2003F07CF82E
:10186000002001E03803002003F076F8702003F038
:1018700073F8002003F070F8902003F06DF800205A
:1018800003F06AF8EB2003F067F8002003F064F837
:10189000DC2003F061F8002003F05EF8B82003F0CC
:1018A00067F8002003F058F8002003F055F80020F6
:1018B00003F052F8002003F04FF8002003F04CF83A
:1018C000002003F049F8002003F046F8002003F060
:1018D00043F8BA2003F04CF8242003F03DF8002030
:1018E00003F03AF8002003F037F8002003F034F852
:1018F000C12003F03DF8202003F02EF8002003F073
:101900002BF8542003F028F8002003F025F8FF20DE
:1019100003F022F8002003F01FF8C22003F028F89B
:101920000A2003F019F8002003F016F8042003F051
:1019300013F8002003F010F8C32003F019F83C203E
:1019400003F00AF8002003F007F83A2003F004F847
:10195000002003F001F8392002F0FEFF002002F021
:10196000FBFF372002F0F8FF002002F0F5FF3C20DB
:1019700002F0F2FF002002F0EFFF362002F0ECFF51
:10198000002002F0E9FF322002F0E6FF002002F022
:10199000E3FF2F2002F0E0FF002002F0DDFF2C200B
:1019A00002F0DAFF002002F0D7FF292002F0D4FF76
:1019B000002002F0D1FF262002F0CEFF002002F02E
:1019C000CBFF242002F0C8FF002002F0C5FF242036
:1019D00002F0C2FF002002F0BFFF232002F0BCFF94
:1019E000002002F0B9FF3C2002F0B6FF002002F018
:1019F000B3FF362002F0B0FF002002F0ADFF32202E
:101A000002F0AAFF002002F0A7FF2F2002F0A4FF9F
:101A1000002002F0A1FF2C2002F09EFF002002F027
:101A20009BFF292002F098FF002002F095FF26205E
:101A300002F092FF002002F08FFF242002F08CFFC2
:101A4000002002F089FF242002F086FF002002F02F
:101A500083FF232002F080FF002002F07DFFC420DE
:101A600002F086FF622002F077FF002002F074FF90
:101A7000052002F071FF002002F06EFF842002F0CA
:101A80006BFF002002F068FFF02002F065FF0020ED
:101A900002F062FF182002F05FFF002002F05CFFFE
:101AA000A42002F059FF002002F056FF182002F097
:101AB00053FF002002F050FF502002F04DFF0020A5
:101AC00002F04AFF0C2002F047FF002002F044FF22
:101AD000172002F041FF002002F03EFF952002F0A7
:101AE0003BFF002002F038FFF32002F035FF00201A
:101AF00002F032FFE62002F02FFF002002F02CFF60
:101B0000C52002F035FF322002F026FF002002F04F
:101B100023FF442002F020FF002002F01DFF65207B
:101B200002F01AFF002002F017FF762002F014FFE7
:101B3000002002F011FF882002F00EFF002002F0CA
:101B40000BFFC62002F014FF202002F005FF00204A
:101B500002F002FF172002F0FFFE002002F0FCFE60
:101B6000012002F0F9FE002002F0F6FEC72002F08C
:101B7000FFFE002002F0F0FE002002F0EDFE00204B
:101B800002F0EAFE002002F0E7FEC82002F0F0FEBC
:101B9000002002F0E1FE002002F0DEFE002002F054
:101BA000DBFE002002F0D8FEC92002F0E1FE00209A
:101BB00002F0D2FE002002F0CFFE002002F0CCFEA8
:101BC000002002F0C9FE002002F0C6FE002002F054
:101BD000C3FE002002F0C0FE002002F0BDFE002087
:101BE00002F0BAFE002002F0B7FE002002F0B4FEC0
:101BF000002002F0B1FE002002F0AEFE002002F054
:101C0000ABFE002002F0A8FE002002F0A5FEE020BE
:101C100002F0AEFE162002F09FFE002002F09CFEB5
:101C20001C2002F099FE002002F096FE212002F016
:101C300093FE002002F090FE362002F08DFE002080
:101C400002F08AFE462002F087FE002002F084FEA9
:101C5000522002F081FE002002F07EFE642002F09D
:101C60007BFE002002F078FE7A2002F075FE002054
:101C700002F072FE8B2002F06FFE002002F06CFE7C
:101C8000992002F069FE002002F066FEA82002F012
:101C900063FE002002F060FEB92002F05DFE00202D
:101CA00002F05AFEC42002F057FE002002F054FE5B
:101CB000CA2002F051FE002002F04EFED22002F0B7
:101CC0004BFE002002F048FED92002F045FE002025
:101CD00002F042FEE02002F03FFE002002F03CFE57
:101CE000F32002F039FE002002F036FEE12002F07F
:101CF0003FFE162002F030FE002002F02DFE1C20D8
:101D000002F02AFE002002F027FE222002F024FE2C
:101D1000002002F021FE362002F01EFE002002F01C
:101D20001BFE452002F018FE002002F015FE522096
:101D300002F012FE002002F00FFE642002F00CFE02
:101D4000002002F009FE7A2002F006FE002002F0D8
:101D500003FE8B2002F000FE002002F0FDFD992022
:101D600002F0FAFD002002F0F7FDA82002F0F4FDD9
:101D7000002002F0F1FDB92002F0EEFD002002F09B
:101D8000EBFDC42002F0E8FD002002F0E5FDCA20D2
:101D900002F0E2FD002002F0DFFDD22002F0DCFDC7
:101DA000002002F0D9FDD82002F0D6FD002002F07C
:101DB000D3FDE02002F0D0FD002002F0CDFDF320A5
:101DC00002F0CAFD002002F0C7FDE22002F0D0FDC3
:101DD000052002F0C1FD002002F0BEFD0B2002F044
:101DE000BBFD002002F0B8FD1B2002F0B5FD002075
:101DF00002F0B2FD342002F0AFFD002002F0ACFD95
:101E0000442002F0A9FD002002F0A6FD4F2002F0C0
:101E1000A3FD002002F0A0FD612002F09DFD002046
:101E200002F09AFD792002F097FD002002F094FD67
:101E3000882002F091FD002002F08EFD972002F034
:101E40008BFD002002F088FDA62002F085FD002019
:101E500002F082FDB72002F07FFD002002F07CFD41
:101E6000C22002F079FD002002F076FDC72002F0CA
:101E700073FD002002F070FDD12002F06DFD002006
:101E800002F06AFDD62002F067FD002002F064FD3A
:101E9000DD2002F061FD002002F05EFDF32002F083
:101EA0005BFD002002F058FDE32002F061FD0520FB
:101EB00002F052FD002002F04FFD0A2002F04CFD1E
:101EC000002002F049FD1C2002F046FD002002F037
:101ED00043FD332002F040FD002002F03DFD442090
:101EE00002F03AFD002002F037FD502002F034FDF0
:101EF000002002F031FD622002F02EFD002002F0F1
:101F00002BFD782002F028FD002002F025FD88201E
:101F100002F022FD002002F01FFD972002F01CFDC0
:101F2000002002F019FDA62002F016FD002002F0AC
:101F300013FDB72002F010FD002002F00DFDC220BD
:101F400002F00AFD002002F007FDC72002F004FDA8
:101F5000002002F001FDD12002F0FEFC002002F082
:101F6000FBFCD52002F0F8FC002002F0F5FCDD209F
:101F700002F0F2FC002002F0EFFCF32002F0ECFC97
:101F8000002002F0E9FCE42002F0F2FC012002F063
:101F9000E3FC002002F0E0FC012002F0DDFC002068
:101FA00002F0DAFC022002F0D7FC002002F0D4FCA0
:101FB0002A2002F0D1FC002002F0CEFC3C2002F0EE
:101FC000CBFC002002F0C8FC4B2002F0C5FC002036
:101FD00002F0C2FC5D2002F0BFFC002002F0BCFC5D
:101FE000742002F0B9FC002002F0B6FC842002F05C
:101FF000B3FC002002F0B0FC932002F0ADFC002006
:1020000002F0AAFCA22002F0A7FC002002F0A4FC2F
:10201000B32002F0A1FC002002F09EFCBE2002F0E2
:102020009BFC002002F098FCC42002F095FC0020EC
:1020300002F092FCCD2002F08FFC002002F08CFC1C
:10204000D32002F089FC002002F086FCDD2002F0A3
:1020500083FC002002F080FCF32002F07DFC0020D5
:1020600002F07AFCE52002F083FC002002F074FC10
:10207000002002F071FC002002F06EFC002002F053
:102080006BFC022002F068FC002002F065FC2920B5
:1020900002F062FC002002F05FFC3C2002F05CFCDD
:1020A000002002F059FC4B2002F056FC002002F008
:1020B00053FC5D2002F050FC002002F04DFC742027
:1020C00002F04AFC002002F047FC842002F044FCAD
:1020D000002002F041FC932002F03EFC002002F0C0
:1020E0003BFCA22002F038FC002002F035FCB320BB
:1020F00002F032FC002002F02FFCBE2002F02CFC8B
:10210000002002F029FCC42002F026FC002002F08E
:1021100023FCCD2002F020FC002002F01DFCD32087
:1021200002F01AFC002002F017FCDC2002F014FC84
:10213000002002F011FCF32002F00EFC002002F05F
:102140000BFCE62002F014FC112002F005FC00203C
:1021500002F002FC342002F0FFFB002002F0FCFB46
:10216000562002F0F9FB002002F0F6FB762002F088
:10217000F3FB002002F0F0FB772002F0EDFB0020E3
:1021800002F0EAFB662002F0E7FB002002F0E4FB2D
:10219000882002F0E1FB002002F0DEFB992002F033
:1021A000DBFB002002F0D8FBBB2002F0D5FB0020B7
:1021B00002F0D2FB992002F0CFFB002002F0CCFB12
:1021C000662002F0C9FB002002F0C6FB552002F099
:1021D000C3FB002002F0C0FB552002F0BDFB002035
:1021E00002F0BAFB452002F0B7FB002002F0B4FB7E
:1021F000432002F0B1FB002002F0AEFB442002F0CD
:10220000ABFB002002F0A8FBE72002F0B1FB32207C
:1022100002F0A2FB002002F09FFB552002F09CFB85
:10222000002002F099FB762002F096FB002002F0DD
:1022300093FB662002F090FB002002F08DFB6720EC
:1022400002F08AFB002002F087FB672002F084FB8B
:10225000002002F081FB872002F07EFB002002F0CC
:102260007BFB992002F078FB002002F075FBBB207D
:1022700002F072FB002002F06FFB992002F06CFB71
:10228000002002F069FB772002F066FB002002F0DC
:1022900063FB442002F060FB002002F05DFB56204F
:1022A00002F05AFB002002F057FB232002F054FBFF
:1022B000002002F051FB332002F04EFB002002F020
:1022C0004BFB452002F048FB002002F045FBE820D4
:1022D00002F04EFB002002F03FFB002002F03CFB2E
:1022E000992002F039FB002002F036FB872002F033
:1022F00033FB002002F030FB882002F02DFB002091
:1023000002F02AFB772002F027FB002002F024FBDA
:10231000662002F021FB002002F01EFB882002F064
:102320001BFB002002F018FBAA2002F015FB002086
:1023300002F012FBBB2002F00FFB002002F00CFBAE
:10234000992002F009FB002002F006FB662002F053
:1023500003FB002002F000FB552002F0FDFA0020F4
:1023600002F0FAFA552002F0F7FA002002F0F4FA2F
:10237000442002F0F1FA002002F0EEFA442002F0CC
:10238000EBFA002002F0E8FA552002F0E5FA00200E
:1023900002F0E2FAE92002F0EBFAAA2002F0DCFAFD
:1023A000002002F0D9FA002002F0D6FA002002F054
:1023B000D3FA002002F0DCFAAA2002F0CDFACF20F6
:1023C00002F0D6FA002002F0C7FA002002F0C4FAA8
:1023D000002002F0C1FA002002F0BEFA002002F054
:1023E000BBFA002002F0B8FA002002F0B5FA002093
:1023F00002F0B2FA002002F0AFFA002002F0ACFACC
:10240000002002F0A9FA002002F0A6FA002002F053
:10241000A3FA002002F0A0FA002002F09DFA0020AA
:1024200002F09AFA002002F097FAF02002F0A0FAE7
:10243000002002F091FA502002F08EFA002002F003
:102440008BFA002002F088FA002002F085FAF320CF
:1024500002F08EFA002002F07FFAF92002F088FAEA
:10246000062002F079FA102002F076FA292002F014
:1024700073FA002002F070FA3A2002F079FA55203F
:1024800002F06AFA112002F073FA642009F09EFA51
:10249000292002F06DFA352002F06AFA002002F0DD
:1024A0005BFA512002F064FAFF2002F055FA532043
:1024B00002F05EFA2C2002F04FFA552002F058FA92
:1024C000822002F049FA2C2002F052FA02F028B8D9
:1024D000FE48808845F2105188427DD155214FF445
:1024E000704002F05BFAAA214FF2010002F056FAA6
:1024F00052214FF2020002F051FA08214FF203007C
:1025000002F04CFA01214FF2040002F047FA0D21CB
:102510004FF4304002F042FA0D214BF2010002F07C
:102520003DFA0D214BF2020002F038FA34214FF44B
:10253000364002F033FA34214BF2016002F02EFAF9
:1025400034214BF2026002F029FA0D214FF43140A0
:1025500002F024FA0D214BF2011002F01FFA0D21B6
:102560004BF2021002F01AFA34214FF4374002F015
:1025700015FA34214BF2017002F010FA34214BF2BB
:10258000027002F00BFA00214FF4324002F006FA1A
:1025900000214BF2012002F001FA00214BF202204F
:1025A00002F0FCF924214FF4384002F0F7F924211D
:1025B0004BF6010002F0F2F924214BF6020002F082
:1025C000EDF901214FF43F4002F0E8F90F214FF4FB
:1025D000334002F0E3F900E0FDE30F214BF201305C
:1025E00002F0DCF90F214BF2023002F0D7F934216E
:1025F0004FF4394002F0D2F934214BF6011002F0C9
:10260000CDF934214BF6021002F0C8F908214FF43D
:10261000354002F0C3F908214BF2015002F0BEF937
:1026200008214BF2025002F0B9F903214FF4424065
:1026300002F0B4F924214FF43A4002F0AFF924211A
:102640004BF6012002F0AAF924214BF6022002F0F9
:10265000A5F900214FF43C4002F0A0F978214BF697
:10266000014002F09BF900214BF6024002F096F97E
:1026700000214FF43D4002F091F978214BF60150D2
:1026800002F08CF900214BF6025002F087F900218C
:102690004FF43E4002F082F964214BF6016002F0F3
:1026A0007DF900214FF4514002F078F933214DF2C9
:1026B000011002F073F900214DF2021002F06EF9E0
:1026C00034214DF2031002F069F900214DF204109B
:1026D00002F064F93A214DF2051002F05FF9002191
:1026E0004DF2061002F05AF94A214DF2071002F09D
:1026F00055F900214DF2081002F050F95C214DF21D
:10270000091002F04BF900214DF20A1002F046F9CF
:1027100081214DF20B1002F041F900214DF20C1015
:1027200002F03CF9A6214DF20D1002F037F900211C
:102730004DF20E1002F032F9E5214DF20F1002F0C9
:102740002DF901214DF2101002F028F913214DF25C
:10275000111002F023F901214DF2121002F01EF9BE
:1027600054214DF2131002F019F901214DF2141009
:1027700002F014F982214DF2151002F00FF9012137
:102780004DF2161002F00AF9CA214DF2171002F0AC
:1027900005F902214DF2181002F000F900214DF266
:1027A000191002F0FBF802214DF21A1002F0F6F8AF
:1027B00001214DF21B1002F0F1F802214DF21C1024
:1027C00002F0ECF834214DF21D1002F0E7F802217E
:1027D0004DF21E1002F0E2F867214DF21F1002F0D8
:1027E000DDF802214DF2201002F0D8F884214DF2DC
:1027F000211002F0D3F802214DF2221002F0CEF89F
:10280000A4214DF2231002F0C9F802214DF2241048
:1028100002F0C4F8B7214DF2251002F0BFF80221F2
:102820004DF2261002F0BAF8CF214DF2271002F037
:10283000B5F802214DF2281002F0B0F8DE214DF279
:10284000291002F0ABF802214DF22A1002F0A6F88E
:10285000F2214DF22B1002F0A1F802214DF22C10C2
:1028600002F09CF8FE214DF22D1002F097F80321A2
:102870004DF22E1002F092F810214DF22F1002F0BE
:102880008DF803214DF2301002F088F833214DF21B
:10289000311002F083F803214DF2321002F07EF87D
:1028A0006D214DF2331002F079F800214FF45240BF
:1028B00002F074F833214DF2012002F06FF800218C
:1028C0004DF2022002F06AF8342101E038030020C2
:1028D0004DF2032002F062F800214DF2042002F0D4
:1028E0005DF83A214DF2052002F058F800214DF232
:1028F000062002F053F84A214DF2072002F04EF86C
:1029000000214DF2082002F049F85C214DF2092027
:1029100002F044F800214DF20A2002F03FF8812134
:102920004DF20B2002F03AF800214DF20C2002F09B
:1029300035F8A6214DF20D2002F030F800214DF2BD
:102940000E2002F02BF8E5214DF20F2002F026F8C0
:1029500001214DF2102002F021F813214DF2112037
:1029600002F01CF801214DF2122002F017F8542158
:102970004DF2132002F012F801214DF2142002F062
:102980000DF882214DF2152002F008F801214DF2D8
:10299000162002F003F8CA214DF2172001F0FEFFC5
:1029A00002214DF2182001F0F9FF00214DF219200B
:1029B00001F0F4FF02214DF21A2001F0EFFF012196
:1029C0004DF21B2001F0EAFF02214DF21C2001F024
:1029D000E5FF34214DF21D2001F0E0FF02214DF210
:1029E0001E2001F0DBFF67214DF21F2001F0D6FF12
:1029F00002214DF2202001F0D1FF84214DF221204F
:102A000001F0CCFF02214DF2222001F0C7FFA421EA
:102A10004DF2232001F0C2FF02214DF2242001F0EB
:102A2000BDFFB7214DF2252001F0B8FF02214DF284
:102A3000262001F0B3FFCF214DF2272001F0AEFF99
:102A400002214DF2282001F0A9FFDE214DF22920BC
:102A500001F0A4FF02214DF22A2001F09FFFF22194
:102A60004DF22B2001F09AFF02214DF22C2001F0B3
:102A700095FFFE214DF22D2001F090FF03214DF234
:102A80002E2001F08BFF10214DF22F2001F086FF48
:102A900003214DF2302001F081FF33214DF231202E
:102AA00001F07CFF03214DF2322001F077FF6D2110
:102AB0004DF2332001F072FF00214FF4534001F03A
:102AC0006DFF33214DF2013001F068FF00214DF21E
:102AD000023001F063FF34214DF2033001F05EFF5C
:102AE00000214DF2043001F059FF3A214DF205303A
:102AF00001F054FF00214DF2063001F04FFF4A2152
:102B00004DF2073001F04AFF00214DF2083001F08C
:102B100045FF5C214DF2093001F040FF00214DF2EC
:102B20000A3001F03BFF81214DF20B3001F036FFFE
:102B300000214DF20C3001F031FFA6214DF20D3095
:102B400001F02CFF00214DF20E3001F027FFE521AE
:102B50004DF20F3001F022FF01214DF2103001F053
:102B60001DFF13214DF2113001F018FF01214DF22C
:102B7000123001F013FF54214DF2133001F00EFF1B
:102B800001214DF2143001F009FF82214DF2153080
:102B900001F004FF01214DF2163001F0FFFECA21C1
:102BA0004DF2173001F0FAFE02214DF2183001F01B
:102BB000F5FE00214DF2193001F0F0FE02214DF238
:102BC0001A3001F0EBFE01214DF21B3001F0E6FE60
:102BD00002214DF21C3001F0E1FE34214DF21D3096
:102BE00001F0DCFE02214DF21E3001F0D7FE67211C
:102BF0004DF21F3001F0D2FE02214DF2203001F0E3
:102C0000CDFE84214DF2213001F0C8FE02214DF2AB
:102C1000223001F0C3FEA4214DF2233001F0BEFEAC
:102C200002214DF2243001F0B9FEB7214DF22530DA
:102C300001F0B4FE02214DF2263001F0AFFECF21AB
:102C40004DF2273001F0AAFE02214DF2283001F0AA
:102C5000A5FEDE214DF2293001F0A0FE02214DF249
:102C60002A3001F09BFEF2214DF22B3001F096FE4E
:102C700002214DF22C3001F091FEFE214DF22D305B
:102C800001F08CFE03214DF22E3001F087FE102161
:102C90004DF22F3001F082FE03214DF2303001F071
:102CA0007DFE33214DF2313001F078FE03214DF2EB
:102CB000323001F073FE6D214DF2333001F06EFEC3
:102CC00000214FF4544001F069FE33214DF20140E0
:102CD00001F064FE00214DF2024001F05FFE34215C
:102CE0004DF2034001F05AFE00214DF2044001F084
:102CF00055FE3A214DF2054001F050FE00214DF203
:102D0000064001F04BFE4A214DF2074001F046FE1D
:102D100000214DF2084001F041FE5C214DF20940D6
:102D200001F03CFE00214DF20A4001F037FE812106
:102D30004DF20B4001F032FE00214DF20C4001F04B
:102D40002DFEA6214DF20D4001F028FE00214DF28E
:102D50000E4001F023FEE5214DF20F4001F01EFE72
:102D600001214DF2104001F019FE13214DF21140E6
:102D700001F014FE01214DF2124001F00FFE54212A
:102D80004DF2134001F00AFE01214DF2144001F012
:102D900005FE82214DF2154001F000FE01214DF2A9
:102DA000164001F0FBFDCA214DF2174001F0F6FD7F
:102DB00002214DF2184001F0F1FD00214DF21940C1
:102DC00001F0ECFD02214DF21A4001F0E7FD012176
:102DD0004DF21B4000E006E301F0E0FD02214DF260
:102DE0001C4001F0DBFD34214DF21D4001F0D6FD09
:102DF00002214DF21E4001F0D1FD67214DF21F402E
:102E000001F0CCFD02214DF2204001F0C7FD8421EC
:102E10004DF2214001F0C2FD02214DF2224001F0AD
:102E2000BDFDA4214DF2234001F0B8FD02214DF279
:102E3000244001F0B3FDB7214DF2254001F0AEFD75
:102E400002214DF2264001F0A9FDCF214DF227408D
:102E500001F0A4FD02214DF2284001F09FFDDE218A
:102E60004DF2294001F09AFD02214DF22A4001F075
:102E700095FDF2214DF22B4001F090FD02214DF223
:102E80002C4001F08BFDFE214DF22D4001F086FD1E
:102E900003214DF22E4001F081FD10214DF22F4013
:102EA00001F07CFD03214DF2304001F077FD33212C
:102EB0004DF2314001F072FD03214DF2324001F03C
:102EC0006DFD6D214DF2334001F068FD00214FF49E
:102ED000554001F063FD33214DF2015001F05EFDDC
:102EE00000214DF2025001F059FD34214DF2035002
:102EF00001F054FD00214DF2045001F04FFD3A2144
:102F00004DF2055001F04AFD00214DF2065001F04E
:102F100045FD4A214DF2075001F040FD00214DF2E0
:102F2000085001F03BFD5C214DF2095001F036FDE7
:102F300000214DF20A5001F031FD81214DF20B507C
:102F400001F02CFD00214DF20C5001F027FDA621CF
:102F50004DF20D5001F022FD00214DF20E5001F016
:102F60001DFDE5214DF20F5001F018FD01214DF23C
:102F7000105001F013FD13214DF2115001F00EFD20
:102F800001214DF2125001F009FD54214DF2135070
:102F900001F004FD01214DF2145001F0FFFC8221EB
:102FA0004DF2155001F0FAFC01214DF2165001F0DE
:102FB000F5FCCA214DF2175001F0F0FC02214DF250
:102FC000185001F0EBFC00214DF2195001F0E6FC25
:102FD00002214DF21A5001F0E1FC01214DF21B508B
:102FE00001F0DCFC02214DF21C5001F0D7FC342131
:102FF0004DF21D5001F0D2FC02214DF21E5001F0A5
:10300000CDFC67214DF21F5001F0C8FC02214DF2AA
:10301000205001F0C3FC84214DF2215001F0BEFC90
:1030200002214DF2225001F0B9FCA4214DF22350AF
:1030300001F0B4FC02214DF2245001F0AFFCB721A5
:103040004DF2255001F0AAFC02214DF2265001F06C
:10305000A5FCCF214DF2275001F0A0FC02214DF23A
:10306000285001F09BFCDE214DF2295001F096FC26
:1030700002214DF22A5001F091FCF2214DF22B5029
:1030800001F08CFC02214DF22C5001F087FCFE2156
:103090004DF22D5001F082FC03214DF22E5001F033
:1030A0007DFC10214DF22F5001F078FC03214DF2F0
:1030B000305001F073FC33214DF2315001F06EFCC1
:1030C00003214DF2325001F069FC6D214DF2335075
:1030D00001F064FC00214FF4564001F05FFC332105
:1030E0004DF2016001F05AFC00214DF2026001F046
:1030F00055FC34214DF2036001F050FC00214DF2EB
:10310000046001F04BFC3A214DF2056001F046FCF1
:1031100000214DF2066001F041FC4A214DF20760AA
:1031200001F03CFC00214DF2086001F037FC5C210D
:103130004DF2096001F032FC00214DF20A6001F00D
:103140002DFC81214DF20B6001F028FC00214DF295
:103150000C6001F023FCA6214DF20D6001F01EFC75
:1031600000214DF20E6001F019FCE5214DF20F60D7
:1031700001F014FC01214DF2106001F00FFC13214D
:103180004DF2116001F00AFC01214DF2126001F0D4
:1031900005FC54214DF2136001F000FC01214DF2B9
:1031A000146001F0FBFB82214DF2156001F0F6FB8B
:1031B00001214DF2166001F0F1FBCA214DF21760BA
:1031C00001F0ECFB02214DF2186001F0E7FB002159
:1031D0004DF2196001F0E2FB02214DF21A6001F09C
:1031E000DDFB01214DF21B6001F0D8FB02214DF205
:1031F0001C6001F0D3FB34214DF21D6001F0CEFBC9
:1032000002214DF21E6001F0C9FB67214DF21F60E3
:1032100001F0C4FB02214DF2206001F0BFFB8421CC
:103220004DF2216001F0BAFB02214DF2226001F063
:10323000B5FBA4214DF2236001F0B0FB02214DF259
:10324000246001F0ABFBB7214DF2256001F0A6FB35
:1032500002214DF2266001F0A1FBCF214DF2276043
:1032600001F09CFB02214DF2286001F097FBDE216A
:103270004DF2296001F092FB02214DF22A6001F02B
:103280008DFBF2214DF22B6001F088FB02214DF203
:103290002C6001F083FBFE214DF22D6001F07EFBDE
:1032A00003214DF22E6001F079FB10214DF22F60C9
:1032B00001F074FB03214DF2306001F06FFB33210C
:1032C0004DF2316001F06AFB03214DF2326001F0F2
:1032D00065FB6D214DF2336001F060FB55214FF429
:1032E000704001F05BFBAA214FF2010001F056FB98
:1032F00052214FF2020001F051FB08214FF203006E
:1033000001F04CFB00214FF2040001F047FBCC21FF
:103310004FF4314001F042FB00214BF2011001F06B
:103320003DFB05214FF4364001F038FB70214FF48E
:10333000374001F033FB70214BF2017001F02EFB9E
:1033400001214FF4384001F029FB03214BF6010025
:1033500001F024FB03214BF6020001F01FFB0321C7
:103360004BF6030001F01AFB02214FF43C4001F040
:1033700015FB00214BF6014001F010FB00214BF63C
:10338000024001F00BFBD0214FF4494001F006FB55
:1033900002214CF6011001F001FB50214CF6021005
:1033A00001F0FCFA50214CF6031001F0F7FA50211D
:1033B0004CF6041001F0F2FA00214FF4545001F0E1
:1033C000EDFA55214FF4685001F0E8FA4FF48850B7
:1033D00001F0CEFA782008F005FB4FF4245001F0FC
:1033E000C7FA01F09DB8FE48808849F2253188422D
:1033F0007ED147F6F001E52001F0D0FA4FF480715C
:10340000012001F0CBFA4FF4E061022001F0C6FA8E
:1034100041F23001032001F0C1FA0021042001F043
:10342000BDFA40F20221082001F0B8FA002109207B
:1034300001F0B4FA00210A2001F0B0FA00210C20BA
:1034400001F0ACFA00210D2001F0A8FA00210F20B4
:1034500001F0A4FA0021102001F0A0FA07211120A8
:1034600001F09CFA0021122001F098FA00211320AB
:1034700001F094FA0021072001F090FA41F29061E6
:10348000102001F08BFA40F22721112001F086FA7A
:103490009D21122001F082FA4FF4C851132001F04F
:1034A0007DFA2521292001F079FA0D212B2001F048
:1034B00075FA0721302001F071FA40F20331312012
:1034C00001F06CFA0321322001F068FA40F2062183
:1034D000352001F063FA0821362001F05FFA40F24E
:1034E0000641372001F05AFA4FF44171382000E0CC
:1034F00057E001F053FA0721392001F04FFA40F26A
:1035000002613C2001F04AFA08213D2001F046FA10
:103510000021502001F042FAEF21512001F03EFA43
:103520000021522001F03AFA40F23F11532001F0FD
:1035300035FA4FF42741602001F030FA0121612073
:1035400001F02CFA00216A2001F028FA00218020E5
:1035500001F024FA0021812001F020FA00218220CC
:1035600001F01CFA0021832001F018FA00218420C8
:1035700001F014FA0021852001F010FA10219020AA
:1035800001F00CFA4FF4C061922001F007FA40F20A
:103590003311072001F002FA2221002001F0FEF988
:1035A0001FE78F48808849F2283188427ED141F256
:1035B0008F01EC2001F0F2F941F23421EF2001F00B
:1035C000EDF94FF48071012001F0E8F94FF4E0616A
:1035D000022001F0E3F941F23001032001F0DEF9AD
:1035E0000021042001F0DAF940F20221082001F064
:1035F000D5F90021092001F0D1F900210A2001F0BC
:10360000CDF901210C2001F0C9F900210D2001F0B4
:10361000C5F900210F2001F0C1F90021102001F0AF
:10362000BDF90721112001F0B9F90021122001F0A4
:10363000B5F90021132001F0B1F90121072001F0B3
:10364000ADF9322008F0C2F941F29041102001F0AA
:10365000A5F940F22721112001F0A0F9322008F04D
:10366000B5F98A21122001F099F9322008F0AEF95B
:103670004FF4D051132001F091F90621292001F0D7
:103680008DF90D212B2001F089F9322008F09EF9E7
:103690000021202001F082F90021212001F07EF993
:1036A000322008F093F90021302000E074E001F0AE
:1036B00075F940F20461312001F070F940F20531F2
:1036C000322001F06BF90021352001F067F940F656
:1036D0000941362001F062F94FF40171372001F001
:1036E0005DF940F20131382001F058F940F20771DC
:1036F000392001F053F900213C2001F04FF940F648
:103700000A213D2001F04AF9322008F05FF900213A
:10371000502001F043F9EF21512001F03FF9002141
:10372000522001F03BF940F23F11532001F036F9ED
:103730004FF42741602001F031F90121612001F0AF
:103740002DF900216A2001F029F90021802001F0E3
:1037500025F90021812001F021F90021822001F0CA
:103760001DF90021832001F019F90021842001F0C6
:1037700015F90021852001F011F91021902001F0A8
:103780000DF94FF4C061922001F008F940F23311B5
:10379000072001F003F924E61148808849F220311E
:1037A00088427DD10021084601F0F8F84FF480717D
:1037B000012001F0F3F84FF4E061022001F0EEF88F
:1037C00041F23001032001F0E9F80021042001F06A
:1037D000E5F840F20221082001F0E0F8002101E0C4
:1037E00038030020092001F0D9F800210A2001F057
:1037F000D5F801210C2001F0D1F800210D2001F0B5
:10380000CDF800210F2001F0C9F8322008F0DEF8D1
:1038100040F20111072001F0C1F8322008F0D6F87B
:103820004FF48651102001F0B9F80721112001F062
:10383000B5F84FF48871122001F0B0F84FF4306100
:10384000132001F0ABF80021292001F0A7F844F281
:1038500010012B2001F0A2F80021502001F09EF869
:10386000EF21512001F09AF80021522001F096F842
:1038700040F23F11532001F091F84FF41C516020A9
:1038800001F08CF80121612001F088F800216A2004
:1038900001F084F80021802001F080F8002100E090
:1038A00031E0812001F07AF80021822001F076F8E1
:1038B0000021832001F072F80021842001F06EF8CD
:1038C0000021852001F06AF81021902001F066F8AF
:1038D0000021922001F062F80121932001F05EF8AE
:1038E0004FF48871952001F059F80021972001F0DC
:1038F00055F80021982001F051F840F2731107208B
:1039000001F04CF86DE5FE48808849F2313188427B
:103910007DD141F21401E72001F040F84FF48071AD
:10392000012001F03BF84FF40071022001F036F85D
:1039300041F23801032001F031F840F20221082061
:1039400001F02CF80021092001F028F800210A20BC
:1039500001F024F800210C2001F020F800210D20B6
:1039600001F01CF800210F2001F018F800211020B0
:1039700001F014F80721112001F010F800211220A5
:1039800001F00CF80021132001F008F8C82008F01D
:103990001DF841F29061102001F000F840F227215B
:1039A000112000F0FBFF322008F010F80C2112204B
:1039B00000F0F4FF322008F009F84FF40061132002
:1039C00000F0ECFF1121292000F0E8FF0B212B2053
:1039D00000F0E4FF322007F0F9FF0021202000F082
:1039E000DDFF40F23F11212000F0D8FF0021302000
:1039F00000F0D4FF4FF48371312000F0CFFF00219D
:103A0000322000F0CBFF4FF40171352000E064E07C
:103A100000F0C4FF41F20A61362000F0BFFF40F21F
:103A20000771372000F0BAFF4FF48371382000F09F
:103A3000B5FF40F20771392000F0B0FF40F20241BB
:103A40003C2000F0ABFF40F60F413D2000F0A6FF08
:103A50000021502000F0A2FFEF21512000F09EFF36
:103A60000021522000F09AFF40F23F11532000F055
:103A700095FF4FF41C51602000F090FF0121612060
:103A800000F08CFF00216A2000F088FF00218020D8
:103A900000F084FF0021812000F080FF00218220BF
:103AA00000F07CFF0021832000F078FF00218420BB
:103AB00000F074FF0021852000F070FF102190209D
:103AC00000F06CFF4FF4C061922000F067FF40F2FD
:103AD0003311072000F062FF83E48948808845F2B3
:103AE000084188427ED14FF48071012000F056FFDA
:103AF0004FF4E061022000F051FF41F23001032059
:103B000000F04CFF0021042000F048FF40F20721A4
:103B1000082000F043FF0021092000F03FFF0021B2
:103B20000A2000F03BFF00210C2000F037FF0021AD
:103B30000D2000F033FF00210F2000F02FFF142094
:103B400007F044FF41F2B061102000F027FF01218F
:103B5000112000F023FF0121172000F01FFF4FF478
:103B60009C71122000F01AFF4FF40061132000F046
:103B700015FF0921292000F011FF09212A2000F05A
:103B80000DFF0021A42000F009FF0021502000F0CB
:103B900005FFEF21512000F001FF0021522000F02D
:103BA000FDFE40F23F11532000F0F8FE4FF41C518F
:103BB000602000F0F3FE0121612000F0EFFE002103
:103BC0006A2000F0EBFE0021802000F0E7FE0021DB
:103BD000812000F0E3FE0021822000F0DFFE0021C2
:103BE000832000E023E000F0D9FE0021842000F0D3
:103BF000D5FE0021852000F0D1FE1321902000F099
:103C0000CDFE0021922000F0C9FE0321932000F098
:103C1000C5FE4FF48871952000F0C0FE40F273118C
:103C2000072000F0BBFE322007F0D0FEB8E4344895
:103C3000808841F2055188427ED10021072000F0A2
:103C4000ADFE322007F0C2FE4FF48E71122000F05C
:103C5000A5FE0121A42000F0A1FE0F21082000F004
:103C60009DFE08210A2000F099FE08210D2000F099
:103C700095FE40F20771302000F090FE07213120C0
:103C800000F08CFE40F20361322000F087FE4FF41A
:103C9000E061332000F082FE40F20221342000F087
:103CA0007DFE0221352000F079FE41F60F713620AD
:103CB00000F074FE40F20771372000F06FFE002123
:103CC000382000F06BFE0021392000F067FE40F242
:103CD00007713A2000F062FE00213B2000F05EFEFA
:103CE00007213C2000F05AFE00213D2000F056FE46
:103CF000322007F06BFE0121072000F04FFE01E0AB
:103D0000380300200121172000F048FE322007F080
:103D10005DFE4FF4BD51102000F040FE40F217212F
:103D2000112000F03BFE4FF48F71122000F036FEA0
:103D30004FF47061132000E097E000F02FFE0021A7
:103D40002A2000F02BFE0A21292000F027FE4FF444
:103D50009F71122000F022FE0021502000F01EFE74
:103D6000EF21512000F01AFE0021522000F016FE33
:103D700040F23F11532000F011FE4FF41C5160201F
:103D800000F00CFE0121612000F008FE00216A20F5
:103D900000F004FE0021802000F000FE00218120C0
:103DA00000F0FCFD0021822000F0F8FD00218320BE
:103DB00000F0F4FD0021842000F0F0FD00218520BA
:103DC00000F0ECFD1321902000F0E8FD4FF440716D
:103DD000922000F0E3FD0521932000F0DFFD00219B
:103DE000952000F0DBFD0021972000F0D7FD002199
:103DF000982000F0D3FD4FF48071012000F0CEFD3B
:103E00004FF4E061022000F0C9FD41F238010320C7
:103E100000F0C4FD0021042000F0C0FD00210C20B2
:103E200000F0BCFD00210F2000F0B8FD0021202093
:103E300000F0B4FD0021212000F0B0FD2121072079
:103E400000F0ACFD142007F0C1FD6121072000F057
:103E5000A5FD142007F0BAFD40F27311072000F011
:103E60009DFD142007F0B2FD5AE3FE4880884BF216
:103E7000055188427ED10021084600F08FFD0021C7
:103E8000084600F08BFD0021084600F087FD002168
:103E9000084600F083FD0121A42000F07FFD1420DE
:103EA00007F094FD4FF41C51602000F077FD40F2C4
:103EB0000221082000F072FD4FF40571302000F05F
:103EC0006DFD43F21571312000F068FD40F2046190
:103ED000322000F063FD40F61661332000F05EFDF5
:103EE00042F21121342000F059FD4FF4A851352041
:103EF00000F054FD48F20751362000F04FFD41F22A
:103F00000741372000F04AFD41F20341382000F01C
:103F100045FD2021392000F041FD1A21902000F0BC
:103F20003DFD0021102000F039FD0721112000F097
:103F300035FD0021122000F031FD0021132000F09A
:103F40002DFD142007F042FD4FF4E661102000F033
:103F500025FD40F23711112000F020FD142007F05C
:103F600035FD4FF4DC71122000F018FD142007F02D
:103F70002DFD00E083E04FF47061132000F00EFD92
:103F800080212A2000F00AFD4821292000F006FDAA
:103F9000142007F01BFD4FF48071012000F0FEFC9F
:103FA0004FF4E061022000F0F9FC41F238010320F7
:103FB00000F0F4FC40F20221082000F0EFFC0021A8
:103FC0000A2000F0EBFC00210C2000F0E7FC0021AF
:103FD0000D2000F0E3FC30210E2000F0DFFC00217A
:103FE000502000F0DBFCEF21512000F0D7FC002135
:103FF000522000F0D3FC40F23F11532000F0CEFCE1
:104000004FF41C51602000F0C9FC0121612000F038
:10401000C5FC00216A2000F0C1FC1121902000F0B5
:10402000BDFC4FF4C061922000F0B8FC40F20241A8
:10403000932000F0B3FC0221942000F0AFFC142088
:1040400007F0C4FC0121072000F0A8FC142007F0B1
:10405000BDFC6121072000F0A1FC40F27311072094
:1040600000F09CFC0021202000F098FC0021212081
:1040700000F094FC2221002000F090FC50E27948EE
:1040800080884CF2055188427ED10021084600F01C
:1040900085FC0021084600F081FC142007F096FC06
:1040A0000021084600F07AFC0021084600F076FC6A
:1040B0000021084600F072FC0021084600F06EFC6A
:1040C0000121A42000F06AFC142007F07FFC4FF4CB
:1040D0001C51602000F062FC40F60601082000F050
:1040E0005DFC40F20371302000F058FC01213120CA
:1040F00000F054FC0421322000F050FC4FF4817198
:10410000332000F04BFC4FF44071342000F046FCAB
:1041100040F20311352000F041FC1F21362000F051
:104120003DFC40F20371372000F038FC01213820BB
:1041300000F034FC0421392000F030FC15219020DF
:1041400000F02CFC4FF48261102000F027FC40F2BC
:104150004721112000F022FC4FF4DE71122000F004
:104160001DFC4FF46061132000F018FC782007F06C
:104170002DFC4FF48071012000F010FC4FF4007111
:10418000022000F00BFC00E050E041F2300103207F
:1041900000F004FC08210A2000F000FC00210C20A3
:1041A00000F0FCFB20210E2000F0F8FB00210F2086
:1041B00000F0F4FB0021202000F0F0FB0021212082
:1041C00000F0ECFB3D212A2000F0E8FB142007F072
:1041D000FDFB2D21292000F0E1FB0021502000F003
:1041E000DDFB4DF2EF01512000F0D8FB0021522001
:1041F00000F0D4FB40F23F11532000F0CFFB002130
:10420000612000F0CBFB00216A2000F0C7FB4FF4D7
:104210004071922000F0C2FB0521932000F0BEFB0C
:104220004FF48071072000F0B9FB79E10D488088D8
:1042300044F2315188427CD10121002000F0AEFBD4
:104240000A2007F0C3FB41F22861102000F0A6FB12
:104250000E21122000F0A2FB40F63921132000F0BD
:104260009DFB01E0380300200A2007F0AFFB40214E
:10427000112000F093FB5021152000F08FFB0A2045
:1042800007F0A4FB1E21122000F088FB0A2007F093
:104290009DFB4FF4B151102000F080FB42F6392114
:1042A000132000F07BFB0A2007F090FB4FF4807195
:1042B000012000F073FB4FF44071022000F06EFB10
:1042C00041F23801032000F069FB40F2022108208E
:1042D00000F064FB08210A2000F060FB0021302080
:1042E00000F05CFB40F20241312000F057FB4FF43C
:1042F0008371322000F052FB40F20351332000F072
:104300004DFB4FF48271342000F048FB40F2013144
:10431000352000F043FB40F20771362000F03EFBF1
:1043200040F20531372000F039FB4FF4027138209C
:1043300000E040E000F032FB40F60B71392000F065
:104340002DFB0221412000F029FB4FF41C5160207D
:1043500000F024FB0121612000F020FB4FF40471E8
:10436000902000F01BFB4FF48571922000F016FBAB
:104370000421932000F012FB4FF48071A02000F084
:104380000DFB0121072000F009FB2121072000F08F
:1043900005FB2321072000F001FB3321072000F05B
:1043A000FDFA40F23311072000F0F8FA0021A020B6
:1043B00000F0F4FAB4E06148808844F23551884254
:1043C000F8D13021152000F0E9FA10219A2000F0F0
:1043D000E5FA2021112000F0E1FA43F228411020F3
:1043E00000F0DCFA0221122000F0D8FA41F2380184
:1043F000132000F0D3FA282007F0E8FA122108462B
:1044000000F0CCFA282007F0E1FA43F22041102016
:1044100000F0C4FA43F23801132000F0BFFA46203E
:1044200007F0D4FA0021302000F0B8FA40F202413F
:10443000312000F0B3FA40F20731322000F0AEFA3A
:104440004FF44171332000F0A9FA0421342000F028
:10445000A5FA40F20141352000F0A0FA40F20771C0
:10446000362000F09BFA40F20531372000F096FA32
:104470004FF4C261382000F091FA4FF4C261392044
:1044800000F08CFA4FF48071012000F087FA4FF4AD
:104490004071022000F082FA41F23001032000F066
:1044A0007DFA40F60801082000F078FA08210A2079
:1044B00000F074FA4FF41C51602000F06FFA0121F3
:1044C000612000F06BFA4FF49F71902000F066FAC3
:1044D0004FF48071922000F061FA4FF480719320C4
:1044E00000F05CFA4FF44051A02000F057FA102180
:1044F000A32000F053FA0121072000F04FFA2121F8
:10450000072000F04BFA2321072000F047FA33215F
:10451000072000F043FA40F23311072000F03EFA82
:104520000020FCF7BDFB02210548FCF74AFB4FF6D3
:10453000FF70FCF74FFB21B000BD000038030020E6
:104540000004024008B5034800880090BDF8000050
:1045500008BD00000000086001B5BDF8000000F0D3
:1045600007FA052007F03EFAFFF7ECFF08BD000050
:104570002DE9F04305460024A146B348807901287F
:104580001ED1B148808846F60401884218D0082D13
:1045900015D2DFE805F00406080A0C0E10120625F5
:1045A0000DE007250BE0042509E0052507E00125BE
:1045B00005E0002503E0032501E0022500BF00BF60
:1045C000A148808849F24131884211D09E488088B4
:1045D00046F6040188420BD09B48808845F2103192
:1045E000884205D09848808845F21051884278D199
:1045F000082D1CD2DFE805F00406090C0F1215186F
:1046000000BF14E044F0800411E044F040040EE0E8
:1046100044F0C0040BE044F0200408E044F06004DF
:1046200005E044F0A00402E044F0E00400BF00BF55
:104630008548808845F21051884202D14FF458597C
:1046400001E04FF036098048808845F210318842F9
:1046500007D07D48808845F21051884201D044F04F
:1046600008047948808846F60401884201D144F064
:1046700002042146484600F091F904F0200018B9E0
:104680007148807901280FD16F4800886E494988A8
:10469000884218DA6C48B0F8008040886A4908807F
:1046A0000846A0F802800EE06748008866494988FD
:1046B000884208DD6448B0F800804088624908807C
:1046C0000846A0F802806048807901280AD15E4837
:1046D000808846F60401884204D05B4846880788F3
:1046E00003E07AE05848068847885748808845F2B2
:1046F000105188424AD15449488900F039F90020C4
:1047000000F02AF950494989491C88B200F030F973
:10471000002000F021F94C494989891C88B200F039
:1047200027F9711EC1F30F2000F016F94649498997
:10473000C91C88B200F01CF9711EC8B200F00CF957
:104740004149888900F014F9002000F005F93E493C
:104750008989491C88B200F00BF9002000F0FCF8B0
:1047600039498989891C88B200F002F9791EC1F3A0
:104770000F2000F0F1F834498989C91C88B200F093
:10478000F7F8791EC8B200F0E7F85AE02E494889D8
:1047900000F0EEF8002000F0DFF8002000F0DCF878
:1047A000711EC1F30F2000F0D7F8711EC8B200F0DF
:1047B000D3F82549888900F0DBF8002000F0CCF818
:1047C000002000F0C9F8791EC1F30F2000F0C4F8F2
:1047D000791EC8B200F0C0F833E0082D1CD2DFE823
:1047E00005F004070A0D0F12151844F0300413E009
:1047F00044F0100410E044F020040DE000BF0BE092
:1048000044F0380408E044F0280405E044F01804BB
:1048100002E044F0080400BF00BF0B48808848F65F
:104820008911884205D14FF0110946F24000044336
:1048300003E04FF0030944F480542146484600F059
:10484000ADF8BDE8F08300003803002030B5044621
:104850000D464048808849F24131884205D03D48A4
:10486000808845F21031884214D13A49488900F0D5
:104870007FF8201200F070F8E0B200F06DF83549D2
:10488000888900F075F8281200F066F8E8B200F0A8
:1048900063F85DE02F48808846F6040188421DD108
:1048A0002C488079012804D12A480088401E001B2A
:1048B00084B22849488900F05BF8201200F04CF8D7
:1048C000E0B200F049F82349888900F051F8281235
:1048D00000F042F8E8B200F03FF839E01D48808867
:1048E00045F21051884220D11A49488900F040F819
:1048F000201200F031F817494989491C88B200F0AC
:1049000037F8E0B200F028F81249888900F030F852
:10491000281200F021F80F498989491C88B200F05B
:1049200027F8E8B200F018F812E00A488079012868
:1049300004D108480088401E001B84B205494889FC
:10494000214600F02BF803498889294600F026F813
:1049500030BD00003803002001B5BDF80000009014
:10496000BDF800000149088008BD00000000086093
:1049700001B5BDF800000090BDF8000001490880B5
:1049800008BD0000FEFF0760024800890249088058
:104990007047000038030020FEFF076003B5BDF834
:1049A000000003490880BDF80400891C08800CBD84
:1049B000FEFF076000BFFEE77047000002490143A9
:1049C000024A1160704700000000FA050CED00E09B
:1049D00029B1064A12680243044B1A6004E0034AF4
:1049E00012688243014B1A60704700003038024061
:1049F00029B1064A12680243044B1A6004E0034AD4
:104A000012688243014B1A60704700003838024038
:104A100029B1064A12680243044B1A6004E0034AB3
:104A200012688243014B1A60704700004038024010
:104A300029B1064A12680243044B1A6004E0034A93
:104A400012688243014B1A607047000044380240EC
:104A5000F0B5002100220024022500260223324F57
:104A60003F6807F00C0121B1042905D0082937D18E
:104A700005E02E4F076036E02D4F076033E02A4FE8
:104A80003F1F3F68C7F38056274F3F1F3F6807F01F
:104A90003F036EB1264FB7FBF3F7DFF88CC0ACF1E4
:104AA000040CDCF800C0CCF3881C07FB0CF40CE011
:104AB0001E4FB7FBF3F7DFF870C0ACF1040CDCF865
:104AC00000C0CCF3881C07FB0CF4174F3F1F3F6856
:104AD000C7F301477F1C7D00B4FBF5F7076002E0D8
:104AE000124F076000BF00BF0F4F3F6807F0F00193
:104AF0000909104F7A5C0768D74047600A4F3F6842
:104B000007F4E051890A0B4F7A5C4768D740876009
:104B1000054F3F6807F46041490B064F7A5C4768D0
:104B2000D740C760F0BD0000083802400024F40000
:104B300000127A005C0000200246002013890B401E
:104B40000BB1012000E00020704700000CB50020F0
:104B5000019000903448006840F480303249086089
:104B600000BF3148006800F4003000900198401CFC
:104B70000190009818B90198B0F5A04FF1D12A48DA
:104B8000006800F4003010B10120009001E0002026
:104B900000900098012846D123484030006840F03A
:104BA00080502149403108602048006840F440406E
:104BB0001E4908601C48083000681B49083108601D
:104BC0000846006840F4004008600846006840F469
:104BD000A05008601648091F0860081F006840F0D0
:104BE0008070091F086000BF0F48006800F0007067
:104BF0000028F9D040F205700E4908600A480830D4
:104C0000006820F003000849083108600846006881
:104C100040F00200086000BF03480830006800F060
:104C20000C000828F8D10CBD00380240007000408C
:104C300008544007003C024010B500BF502080F3EC
:104C40001188BFF34F8FBFF36F8F00BF44F062F83E
:104C500018B14FF080500449086000BF002080F375
:104C6000118800BF10BD000004ED00E010B515482C
:104C7000006840F47000134908601348006840F071
:104C800001001149086000200F49083108600E48F2
:104C900000680E4908400C4908600D48091D08606D
:104CA000081F006820F48020091F086000200649C2
:104CB0000C310860FFF74AFF4FF00060014980396E
:104CC000086010BD88ED00E000380240FFFFF6FEEE
:104CD000103000243EB505460C46681E0190601E4B
:104CE00080B2ADF800001020ADF802000020ADF851
:104CF00008006946014800F031F83EBD000400405C
:104D000010B50121044800F018F8012803D1012151
:104D1000014800F003F810BD00080040CA430282B9
:104D2000704721B1028842F00102028004E002884B
:104D30004FF6FE731A400280704730B502460020DD
:104D400000230024158A05EA0103958905EA010478
:104D500013B10CB1012000E0002030BD0022028818
:104D6000184B98420ED0184B98420BD0B0F1804FA0
:104D700008D0164B984205D0154B984202D0154BDF
:104D8000984204D14FF68F731A404B881A43124B46
:104D9000984207D0114B984204D04FF6FF431A4077
:104DA0000B891A4302804B68C3620B880385054B4D
:104DB000984202D0044B984201D18B7A038601239A
:104DC000838270470000014000040140000400405D
:104DD00000080040000C004000100040001400409B
:104DE0001FB501212620FFF7F3FD4FF4804002900C
:104DF00000208DF80C008DF80E0003208DF80D00BA
:104E000001208DF80F0002A92248FBF766FE202042
:104E1000029000208DF80C008DF80E0003208DF814
:104E20000D0001208DF80F0002A91B48FBF755FE6D
:104E30004FF43040029001208DF80C0002A9154873
:104E4000FBF74BFE1549A1F10A0000F0E3F89FEDD6
:104E5000140A1248163880ED090A9FED120A80EDF7
:104E60000A0A6FF00A000D4916398885801EC88528
:104E7000002081F830000CA04FF48E710F4B10A26F
:104E8000CDE9001014A103200FF02AFA012004B08C
:104E900010BD00000004024000080240260000206F
:104EA000F1D4833DCC28B63D746F75636820696E7C
:104EB0006974206F6B210D0A00000000E592040860
:104EC0002E2E5C6472697665725C746F7563685CC3
:104ED000746F7563682E6300746F756368000000FB
:104EE00070B506460025002400224FF400512A48E0
:104EF000FBF769FE00224FF400412748FBF763FEF1
:104F000000224FF480512448FBF75DFE304600F04C
:104F10007DF9062006F066FD00224FF400511E4880
:104F2000FBF751FE012006F05DFD012251031A48F6
:104F3000FBF749FE012006F055FD00224FF4005119
:104F40001548FBF740FE00BF1BE04FF6FF7000EA7C
:104F5000440400224FF400510F48FBF734FE0120B7
:104F600006F040FD012251030B48FBF72CFE4FF4E5
:104F700080410948FBF71CFE08B1601C84B2681C24
:104F8000C5B2102DE1DB2411012211030248FBF709
:104F90001AFE204670BD0000000402402DE9FE43C9
:104FA00080460027002406E04046FFF799FF2DF8D1
:104FB0001400601C84B2052CF6DB002416E0601C93
:104FC00085B20FE03DF814003DF81510884207DD6A
:104FD0003DF814603DF815002DF814002DF815600B
:104FE000681C85B2052DEDDB601C84B2042CE6DB69
:104FF0000027012405E03DF81400384487B2601C06
:1050000084B2042CF7DB032097FBF0F086B2304625
:10501000BDE8FE832DE9F04104460D4607480078BF
:10502000FFF7BCFF064606480078FFF7B7FF0746C4
:1050300026802F800120BDE8F08100004400002080
:10504000450000207FB504460D4602A903A8FFF7DE
:10505000E1FF064616B9002004B070BD694601A8FC
:10506000FFF7D8FF06460EB90020F5E7BDF80400AB
:10507000BDF80C10884206DCBDF80C10BDF8040029
:10508000323081420CDBBDF80C00BDF804108842C0
:1050900036DCBDF80410BDF80C00323081422FDA46
:1050A000BDF80000BDF80810884206DCBDF8081005
:1050B000BDF80000323081420CDBBDF80800BDF8BD
:1050C000001088421CDCBDF80010BDF8080032302A
:1050D000814215DABDF80C10BDF80420881800EBE9
:1050E000D071C1F34F012180BDF80810BDF8002038
:1050F000881800EBD071C1F34F0129800120ABE784
:105100000020A9E710B5044620213E48FBF750FDDA
:10511000002852D142F038FC2CB13B49A1F10A00E1
:10512000FFF790FF35E03849A1F10A00FFF78AFF49
:1051300078B335481638B0F92C0000EE100AB8EEF6
:10514000C00A3148163890ED091A808900EE900A9D
:10515000F8EE600A01EE200ABCEEC00A10EE100A5A
:105160002949163988810846B0F92E0000EE100A48
:10517000B8EEC00A084690ED0A1AC08A00EE900AFE
:10518000F8EE600A01EE200ABCEEC00A10EE100A2A
:10519000C8821D48163890F8200000F0800048B9F9
:1051A000C0201949163981F820000846818981827A
:1051B000C18AC18342F012FC1CE01348163890F8F3
:1051C000200000F0800050B10F48163890F8200001
:1051D00020F080000C49163981F820000AE00021F7
:1051E000094816388182C1834FF6FF700649163987
:1051F0008881C8820448163890F8200000F08000AA
:1052000010BD0000000802402600002070B50446D2
:10521000002500BF20E004F0800028B10122D10366
:105220000F48FBF7D0FC05E000224FF400410C488A
:10523000FBF7C9FC6006040E00224FF40051084839
:10524000FBF7C1FC012006F0CDFB0122510304480D
:10525000FBF7B9FC681CC5B2082DDCDB70BD000093
:105260000004024021B1828942F40052828104E0AC
:1052700082894DF6FF731A408281704702460020F2
:10528000B1F5007F00D100BF13880B400BB10120A6
:1052900000E00020704700002DE9FF4705460E465C
:1052A0000024A14600BFA046B08900B100BF2C8AEF
:1052B00024F44054F08804432C82AC8941F20C6001
:1052C0008443B08831890843718908430443AC8121
:1052D000AC8A24F44074B0890443AC826846FFF77A
:1052E000B7FB2048854202D01F48854202D1DDF835
:1052F0000C9001E0DDF80890A88900F4004040B16E
:1053000009EBC90000EB091031684900B0FBF1F767
:1053100007E009EBC90000EB091031688900B0FB18
:10532000F1F76420B7FBF0F004012009642101FBD0
:105330001078A88900F4004040B1322000EBC8008A
:10534000B0FBF1F000F00700044308E0322000EB6E
:1053500008106421B0FBF1F000F00F0004432C8131
:10536000BDE8FF870010014000140140C1F30802AE
:105370008280704700BFFEE70FB4054B10B503A94C
:10538000044A029802F026FD10BC5DF814FB0000F0
:1053900045630108340300200FB47CB50C0009AD4F
:1053A00001D0611E00E00021CDE90001064B6A46F4
:1053B0002946089802F00EFD002C02D0009A002128
:1053C00011707CBC5DF814FBDB840008014B024AC1
:1053D00002F000BD45630108340300207CB50C00D9
:1053E0001D461646014601D0601E00E00020CDE9B2
:1053F0000010064B6A462946304602F0EBFC002CB2
:1054000002D0009A002111707CBD0000DB840008EE
:1054100002E008C8121F08C1002AFAD1704770477D
:10542000002001E001C1121F002AFBD1704770B5B6
:105430000446002508E02168481C206008783038C0
:1054400005EB850100EB41052168087800F0C6F8FE
:105450000028F0D1284670BD2DE9FF5F82B0002101
:10546000DDE90430020DDDF840B0034318D044F606
:105470001050A2F2FF3242431514119801281FD098
:10548000A5EB0B00401C5FEA000A4FF000064E4FF0
:10549000DFF83891B046504615D5CAF1000413E044
:1054A000119801244AA3012801D16FEA0B01029847
:1054B000119AC0E90031C0E9024206B0BDE8F09F90
:1054C000CBF10000DFE704460021404A491842EBD7
:1054D0000450CDE9001012E0E00707D032463B4609
:1054E00040464946FBF73EF88046894632463B46F1
:1054F00010461946FBF736F806460F466410002C96
:10550000EAD1DDE90401DDE90023BAF1000F06DA92
:10551000FBF728F842464B46FBF724F805E0FBF77B
:1055200093F842464B46FBF78FF804460E4600229E
:10553000284BFBF711F903D84FF0FF30014607E085
:105540000022254B20463146FAF765FFFBF7EBF8C2
:10555000102409E0002C0ADB0A220023FAF792FE4D
:10556000039B30321A55641E50EA0102F2D1641CCA
:10557000039AC4F111031444119A012A03D00122A1
:1055800008430DD10AE0084304D000204FF0110B6E
:10559000119072E7A3EB0B056D1E0DE05B4504DD7A
:1055A0004FF0000205F1010504E003DA4FF00002BC
:1055B000A5F10105002AECD002981199C0E9023149
:1055C000C0E9004579E70000000014400000F03F0A
:1055D000300000000000F0430000E03F01463029A9
:1055E00003DB392901DC012070470020FCE70000C3
:1055F00010B54021074801F0EFFC002205210648C4
:105600003AF03CFA0549086003F028FE00200449FE
:10561000087010BDB891002029930008680200208E
:105620006402002030B50346B1F90040B2F90050E1
:10563000AC4202DDB1F9004001E0B2F900401C804B
:10564000B1F90240B2F90250AC4202DDB1F90240B8
:1056500001E0B2F902405C80B1F90440B2F90450B3
:10566000AC4202DAB1F9044001E0B2F904409C8096
:10567000B1F90640B2F90650AC4202DAB1F906407F
:1056800001E0B2F90640DC800120B3F90040B3F933
:105690000450AC4205DCB3F90240B3F90650AC4209
:1056A00000DD002030BDF8B504460D461646002743
:1056B000B4F90000B5F90010884212DBB4F9020019
:1056C000B5F9021088420CDBB4F90400B5F90410F6
:1056D000884206DCB4F90600B5F90610884200DC01
:1056E00001270FB90020F8BD0EB90120FBE7208883
:1056F000ADF800006088ADF80200324669462846E1
:1057000000F0A7F808B90020EDE7A088ADF8000088
:105710006088ADF8020032466946284600F099F8E4
:1057200008B90020DFE72088ADF80000E088ADF878
:10573000020032466946284600F08BF808B900207E
:10574000D1E7A088ADF80000E088ADF8020032464D
:105750006946284600F07DF808B90020C3E701201B
:10576000C1E70246B2F90000B1F90430984213DCF7
:10577000B2F90400B1F9003098420DDBB2F9020031
:10578000B1F90630984207DCB2F90600B1F90230EF
:10579000984201DB012070470020FCE7F8B5044681
:1057A0000D461646B4F90400B5F90010884211DB25
:1057B000B4F90600B5F9021088420BDBB4F9000019
:1057C000B5F90410884205DCB4F90200B5F90610F9
:1057D000884201DD0120F8BD0EB90020FBE72088DA
:1057E000ADF800006088ADF80200324669462846F0
:1057F00000F02FF808B10020EDE7A088ADF8000018
:105800006088ADF8020032466946284600F021F86B
:1058100008B10020DFE72088ADF80000E088ADF88F
:10582000020032466946284600F013F808B100200D
:10583000D1E7A088ADF80000E088ADF8020032465C
:105840006946284600F005F808B10020C3E70120AA
:10585000C1E72DE9FC5F05460E4614464FF0000AED
:10586000B6F90000B5F90010884213DBB6F9000064
:10587000B5F9041088420DDCB6F90200B5F9021042
:10588000884207DBB6F90200B5F90610884201DC50
:105890004FF0010ABAF1000F02D10020BDE8FC9FD1
:1058A000002C01DC0120F9E7284616F0E5FA8346D2
:1058B00000EBDB704710284616F056FA834600EBE3
:1058C000DB704FEA6008474501DA384600E04046A1
:1058D00081464C4500DD4C462888ADF800002888FC
:1058E000204400B2ADF804006888ADF80200688872
:1058F000204400B2ADF80600002231466846FFF7AA
:10590000A8FF80B1BDF80400204400B2ADF8040047
:10591000BDF80600204400B2ADF8060031466846E6
:1059200033F046FBBAE7E888001B00B2ADF802008E
:10593000E888ADF80600002231466846FFF789FF87
:1059400080B1BDF80400204400B2ADF80400BDF8F9
:105950000200001B00B2ADF802003146684633F089
:1059600027FB9BE7A888001B00B2ADF80000A888C1
:10597000ADF80400002231466846FFF76AFF80B1A7
:10598000BDF80000001B00B2ADF80000BDF8020039
:10599000001B00B2ADF802003146684633F008FB48
:1059A0007CE76888ADF802006888204400B2ADF852
:1059B0000600002231466846FFF74BFF80B1BDF874
:1059C0000000001B00B2ADF80000BDF80600204446
:1059D00000B2ADF806003146684633F0E9FA5DE7FB
:1059E00001205BE710B5B1F90030B2F90040A342E5
:1059F00002DAB1F9003001E0B2F900300380B1F908
:105A00000230B2F90240A34202DAB1F9023001E0F9
:105A1000B2F902304380B1F90430B2F90440A34234
:105A200002DDB1F9043001E0B2F904308380B1F94C
:105A30000630B2F90640A34202DDB1F9063001E0BA
:105A4000B2F90630C38010BD2DE9F0478AB0074691
:105A500000BF00BF39F0B3FF8146002009901FB19D
:105A6000C949F868086003E01BF028FBC6490860D4
:105A7000C5490968086933F051F9C34800684069AD
:105A800020B1C1490968486933F048F9BE4909683D
:105A9000C86933F043F9BC490968086A33F03EF934
:105AA000B9480068006990B90020B7490968A1F8B1
:105AB0005001B6A0BC4B4FF49972BCA100900220DB
:105AC00001F026FB00BF00BF0AB0BDE8F08733F04D
:105AD0009DFD33F0E3FCAC480068B0F850010028AD
